:020000040800F2
:10000000182900209D9F0008E79C0008E99C000833
:10001000EB9C0008ED9C0008EF9C0008000000002D
:10002000000000000000000000000000F19C00083B
:10003000F39C000800000000F59C0008F79C0008F5
:10004000C19F0008C59F0008C99F0008CD9F0008F8
:10005000D19F0008D59F0008D99F0008DD9F0008A8
:10006000E19F0008E59F0008E99F0008ED9F000858
:10007000F19F0008F59F0008F99F0008FD9F000808
:1000800001A0000805A0000809A000080DA00008B4
:1000900011A0000815A0000819A000081DA0000864
:1000A00021A0000825A0000829A000082DA0000814
:1000B00031A0000835A0000839A000083DA00008C4
:1000C00041A0000845A0000849A000084DA0000874
:1000D00051A0000855A0000859A000085DA0000824
:1000E00061A0000865A0000869A000086DA00008D4
:1000F00071A0000875A0000879A000087DA0000884
:1001000081A0000885A0000889A000088DA0000833
:1001100091A0000895A00008BB7C000899A00008E9
:10012000FB9C00089DA00008A1A00008019D0008FC
:10013000A5A000080000000000000000A9A0000821
:10014000ADA00008B1A00008B5A00008079D0008F8
:10015000B9A00008BDA00008C1A00008C5A0000803
:10016000C9A00008CDA00008D1A00008D5A00008B3
:10017000D9A00008DDA00008000000000000000079
:10018000E1A00008E5A00008C178827842EA0122D7
:100190004178007841EA022140EA0120704770B4BA
:1001A000494C0246206800230025A0B11668B042E1
:1001B00002BF60689668B04202BFA0685669B0424C
:1001C0000AD129B904EB05108189B1F5807F16D1D8
:1001D00070BC1020704701232069012578B1166892
:1001E000B04202BF60699668B04202BFA06952691E
:1001F0009042E6D01BB9022918BF122000D100207E
:1002000070BC70472DE9F0412F4ED6F800C0024671
:100210000023156857699468AC4501BF7068A04217
:10022000B068B84219D030690123A84201BFD6F89E
:1002300014E0A645D6F81880B8450ED00023BCF1CE
:10024000000F1CBF012300280CD106EB0310056032
:100250004460002452698260848106EB0312908915
:1002600031B110B10020BDE8F0814FF4807000E0A2
:10027000401C9081581CBDE8F081401E022814D219
:10028000000111490A189389B3F5807F18BF5FEA0E
:10029000030C02D10023938103E05B1E93819BB288
:1002A0000BB900220A50002070470220704706490F
:1002B0000A68824204BF00220A600A69824204BFBF
:1002C0000020086170470000BC180020F0B5064609
:1002D00081B0F078002508B3F76A707801233A46B8
:1002E00006F1300101F0BEFF18B10125284601B02A
:1002F000F0BDF070316AB069791A81420ED2B478DB
:10030000012C0BD9641EB069C719707801233A46D5
:1003100006F1300101F0A6FF641EF4D1284601B0B9
:10032000F0BD70B504460D46E06A0026854210D047
:100330002046FFF7CBFF06000BD1607801232A4649
:1003400004F1300101F083FF10B14FF0FF350126B9
:10035000E562304670BD30B581B00446FFF7B6FFA8
:10036000050051D12078032804BF2079012844D109
:100370004FF4007104F1300001F08CFF552084F837
:100380002E02AA21522084F8300084F8310084F82B
:100390002F12612084F832004121722084F8140267
:1003A00084F8150284F83310412084F81602612184
:1003B0002069E26984F8180284F81712000A84F8A8
:1003C0001902521C000A84F81A02E262000A84F838
:1003D0001B020123E06884F81C0204F13001000ACA
:1003E00084F81D02000A84F81E02000A84F81F0225
:1003F000607801F037FF0020207100226078002132
:1004000001F03BFF00B10125284601B030BD426933
:10041000891E921E914201D3002070474289806A52
:1004200002FB0101084670472DE9F0410C460568C2
:10043000022C59D36869844256D2297801294FF099
:10044000FF3604D050D303293BD027D34CE0296A90
:1004500004EB540701EB57212846FFF762FF002801
:1004600043D105F13000C7F308017F1C10F801806B
:10047000296A01EB57212846FFF753FFA8BB05F176
:100480003000C7F30807C15D48EA0126E00754BF02
:10049000C6F30B0636093046BDE8F081296A01EB48
:1004A00014212846FFF73DFFF8B905F13000240676
:1004B00000EBD4504178067846EA01263046BDE884
:1004C000F081296A01EBD4112846FFF72AFF60B9B1
:1004D00005F13000640600EBD450FFF755FE20F024
:1004E00070463046BDE8F08101263046BDE8F08117
:1004F0002DE9F0410C46022C064615464FF0020845
:1005000076D37069844273D23178012906D06FD3D3
:1005100003294ED03AD34046BDE8F081316A04EB5E
:10052000540701EB57213046FFF7FBFE5FEA000856
:100530005ED106F13000C7F308017F1C084414F0B7
:1005400001041DBF017801F00F0141EA05112946A0
:1005500001700120F0703046316A01EB5721FFF73E
:10056000E0FE5FEA000843D106F13000C7F3080758
:10057000C01914B12D09057038E001782D0A01F079
:10058000F00105F00F050D4305702FE0316A01EB16
:1005900014213046FFF7C5FE5FEA000828D106F1B6
:1005A0003000240600EBD45005702D042D0E45704C
:1005B0001CE0316A01EBD4113046FFF7B2FE5FEA6E
:1005C000000815D106F13000640600EBD454204633
:1005D000FFF7DAFD25F0704500F070400543257007
:1005E0002D0A65702D0AA5702D0AE5700120F070A6
:1005F0004046BDE8F0812DE9F043814681B00D46CB
:10060000D9F80040012D114641D9606985423ED29A
:1006100041B14FF0FF322046FFF76AFF002807463E
:1006200040F0958029464846FFF7FEFE5FEA000845
:1006300000F08980B8F1010F29D018F1010F2AD0FC
:100640000227012D6FD9606985426CD2217801297A
:1006500004D068D3032922D03BD364E0216A05EBA0
:10066000550601EB56212046FFF75BFE00280746A2
:1006700059D104F13000C6F30801761C084415F086
:1006800001051ABF017801F00F01002132E00220BC
:1006900001B0BDE8F083012001B0BDE8F083216A1C
:1006A00001EBD5112046FFF73CFE002807463AD162
:1006B00004F130006D0600EBD5552846FFF764FDC8
:1006C000000E002100F0F00029706970A970E87038
:1006D00027E0216A01EB15212046FFF722FE07469D
:1006E00008BB04F130002D0600EBD550002101704D
:1006F000417016E001700120E0702046216A01EB94
:100700005621FFF70EFE074668B904F13000C6F324
:1007100008063044002D12BF0021017801F0F001DD
:1007200001700120E07097B960692169821E9142D1
:1007300005D2491C2161217941F001012171454611
:100740008542FFF46FAF002001B0BDE8F08338466A
:1007500001B0BDE8F0832DE9F04180460C00D8F8E7
:10076000006006D1F56815B1706985420ED3012588
:100770000CE0FFF759FE012898BF01203ED910F187
:10078000010F3BD07169884238D325462F467069E6
:100790007F1C874202D30227012D0BD939464046E0
:1007A000FFF742FE48B1012818BF10F1010F25D014
:1007B000AF42ECD10020BDE8F0814FF0FF32394666
:1007C0003046FFF795FE98B92CB13A46214630469F
:1007D000FFF78EFE60B9F76071693069891E81424A
:1007E00024BF401E3061307940F00100307104E0D8
:1007F00001280CBF4FF0FF3701273846BDE8F081D4
:10080000C26A00684389490A121DB1FBF3F003E094
:10081000984218D3C01A0832116891B1884212D395
:1008200052F8083F401A63B198420CD352F8081F9F
:10083000C01A31B1884206D352F8083F401A002B43
:10084000E6D10020704751680818704702461278B8
:10085000CB7E887E032A40EA032005D14A7D097DAC
:1008600041EA022140EA0140704713041B0E8A76D8
:10087000CB760078032803D1120C0A75120A4A7548
:10088000704700002DE9F04F064681B03568B46826
:100890004FF00008A946AB46C6F8148044B9287842
:1008A000032801DB6C6A1CB9288950B3686A18E018
:1008B0006F8906E0022C24D36869844221D2A8EB18
:1008C0004728B8EB472F214608D33046FFF7ACFD49
:1008D000044614F1010FEDD101248EE02846FFF704
:1008E00096FDF061B461F06958B100EB5820F061F9
:1008F000C8F3080205F13000811831624FF000089A
:1009000021E0022479E00120F8703846FFF7DEFC90
:100910000028E1D1F86A0AF1010A401CF8627889DE
:100920008245F0D3F96AA1EB0A00F862B46121466E
:100930003846FFF76CFDF061756107F13000C5F3D3
:100940000805411931625846F169FFF7EAFC0400D5
:1009500051D1306A0078E5281CBF00284FF000080C
:1009600004D108F10108B8F1010F46D07569376864
:10097000F069203570B1B5F5001F0BD2E905DBD168
:10098000401CB169F06139B9398968098842D3D30B
:100990000020F061072430E07889401E10EA552FCE
:1009A000CAD13046FFF740FD0446022CA9D314F10A
:1009B000010F91D078698442B8D3B1693046FFF70E
:1009C000CAFE0400E6D0012C9BD014F1010F83D0A5
:1009D0003846FFF77BFC00287FF47EAF4FF40071B0
:1009E00007F1300001F056FC21463846FFF70FFDB5
:1009F0004FF0000A92E70428CCD020001FD1F16903
:100A00004846FFF78EFC040019D1306A202101F01E
:100A100041FC06F12402316A12F8010B01F8010BC6
:100A20005FF0050012F8013B01F8013B401E12F88F
:100A3000013B01F8013BF5D1012089F80300204674
:100A400001B0BDE8F08F00002DE9F04F054681B000
:100A5000286800E0491C0A782F2A18BF5C2AF9D0C0
:100A60000022AA600B78202B44D2802085F82F002A
:100A700090462F68AC686A616CB93878022801DD4D
:100A80007C6A44B9388920B90226304601B0BDE8F5
:100A9000F08F786A1BE07E8906E0022CF4D3786937
:100AA0008442F1D2A8EB4628B8EB462F21460BD35F
:100AB0002846FFF7B9FC044614F1010FEDD10126D9
:100AC000304601B0BDE8F08F3846FFF7A0FCE86182
:100AD000AC61E8690028D7D000EB5820E861C8F382
:100AE000080207F13000811829620026304601B063
:100AF000BDE8F08F2C468846054619E04007C4D46F
:100B0000A179C80640F13081606905F13001C0F378
:100B100008000844C27E817E41EA02212A78032A25
:100B200005D1427D007D40EA022041EA0041A160FA
:100B300020220B2104F1240001F0B4FB002399468C
:100B40005FF008068BA7DFF888EA21E0521C1078D6
:100B500090B188421CBF12F8010F00280CD08842C7
:100B60001CBF12F8010F002806D088421EBF12F8E1
:100B7000010F00288842E9D1107800284FD1A1F157
:100B800061021A2A04F1240038BF2039C1545B1CC9
:100B900018F80910202909F101091DDD2F2918BFB6
:100BA0005C2913D02E2909D0B34238D28029A4BFA2
:100BB0000EEB010010F8801C3A46C8E70B2E2ED031
:100BC00008230B26E4E700BF09F1010918F8090022
:100BD0002F2818BF5C28F7D0C84403B394F824002A
:100BE000E52804BF052284F824202029CCBF00205A
:100BF000042084F82F00002627686661B946A068A3
:100C000090B93978022901DD786A68B9398921B14A
:100C1000796AE161A061E06928BB022699E00626B5
:100C2000304601B0BDE8F08FB7F80AB0824607E061
:100C3000BAF1020FF1D378698245EED2A6EB4B26CA
:100C4000B6EB4B2F514608D32046FFF7EDFB82460B
:100C50001AF1010FECD101267BE03846FFF7D7FBF4
:100C6000E0615046D6E700EB5620E061C6F3080687
:100C700007F1300081191BE07089401E10EA572FE0
:100C800010D12046FFF7D0FB0228C6D310F1010F88
:100C9000E1D07169884259D2A06101463046FFF720
:100CA000B6FBE061676106F13000C7F30807C119C0
:100CB0002162E769D9F82C000026874212D0484605
:100CC000FFF704FB064668B999F8010001233A468C
:100CD00009F1300101F0BBFA10B14FF0FF370126E6
:100CE000C9F82C70002E34D1216A087880B3C87AF4
:100CF000226A00F03F00A071D07A010713D40B21C3
:100D000004F1240317781878381A491E0AD048B914
:100D1000577893F801C0A7EB0C009B1C921C491E4E
:100D20000028EFD0A8B167692668E069203778B15C
:100D3000B7F5001F0CD2F905B4D1A169401C0029F8
:100D4000E06199D1318978098842ABD30020E06114
:100D50000426002E94F82F003FF4D0AE042E7FF42A
:100D600094AE40073FF591AE0526304601B0BDE890
:100D7000F08F0000222A2B2C3A3B3C3D3E3F5B5D2E
:100D80007C7F000010B403684FF0FF3163B31C4652
:100D900000E0641C2278212A13D33A2A11D014F8D7
:100DA000012F212A0DD33A2A0BD014F8012F212A22
:100DB00007D33A2A05D014F8012F212A01D33A2A61
:100DC000E7D122783A2A0ED113F8012B303A0A2AB9
:100DD0000AD2A34208BF002A06D1621C0021026089
:100DE000084610BC7047002110BC0846704710B57B
:100DF000044600224FF0FF33E270E362FFF791FAFE
:100E000008B1042010BD94F82F0294F82E1241EA84
:100E100000214AF65520814201D0032010BD94F8EC
:100E20003000E92805D0EB2804BF94F83200902860
:100E300013D104F16600FFF7A7F920F07F40DFF837
:100E4000C019884207D004F18200FFF79DF9DFF84E
:100E5000B419884201D1002010BD022010BD2DE937
:100E6000F047144684B000220A60026882B3154637
:100E700000E06D1C2B78212B13D33A2B11D015F8E1
:100E8000013F212B0DD33A2B0BD015F8013F212B1D
:100E900007D33A2B05D015F8013F212B01D33A2B6C
:100EA000E7D12B783A2B0AD112F8013B303B0A2BC1
:100EB0000ED2AA4208BF002B0AD16A1C0260DFF8DA
:100EC0004899D9F824503DB90C2004B0BDE8F0870A
:100ED0000B2004B0BDE8F0870D6004F0FE04287814
:100EE00050B1687801F096F9C10705D4002C00F0E4
:100EF000788140070DD474E100202870687001F0FB
:100F000092F9C10748BF032000F16C812CB1400762
:100F100003D50A2004B0BDE8F08700244FF0FF3A63
:100F2000EC70C5F82CA000212846FFF7FAF900283C
:100F300040F0818095F82F0295F82E124AF6552838
:100F400041EA0021414540F0068195F83000E9284A
:100F500005D0EB2804BF95F83200902811D105F197
:100F60006600FFF711F920F07F40DFF894188842FF
:100F700068D005F18200FFF707F9DFF8881888428A
:100F800060D095F8F20168B195F8F90195F8F8117B
:100F900095F8F72141EA002195F8F60142EA01228D
:100FA00040EA0220009095F8020268B195F8090223
:100FB00095F8081295F8072241EA002195F80602F3
:100FC00042EA012240EA0220019095F8120268B13B
:100FD00095F8190295F8182295F8173242EA00227E
:100FE00095F8160243EA022340EA0320029095F89E
:100FF000220268B195F8290295F8282295F827323F
:1010000042EA002295F8260243EA022340EA03203E
:10101000039000266F463C6824B121462846FFF71E
:10102000E6FE00E00320012803DD761C3F1D042EB0
:10103000F1D3042803D1012004B0BDE8F0870128D2
:1010400000F3898095F83C0095F83B1041EA0021B7
:10105000B1F5007F40F07F8095F8471095F8460085
:1010600050EA012004BF05F15400FFF78DF895F810
:101070004010A861012918BF0229A9706BD101FB9A
:1010800000F695F83D006881010064D0421E1042D0
:1010900061D195F8421095F8410040EA012010F026
:1010A0000F0F288157D195F8440095F8431051EA65
:1010B000002104D105F15000FFF766F8014695F8CC
:1010C0003F0095F83E2052EA002244D02889B31808
:1010D00003EB101399423ED36F89C91AB1FBF7F1A4
:1010E000002938D003274FF6F67C614538BF022728
:1010F00040F6F67C614538BF0127891C12191B197F
:10110000032F6961EC612A62AB6210D195F85B1024
:1011100095F85A2052EA012208BF00281BD105F198
:101120005C00FFF731F86862686980000DE090B1FB
:10113000286A36186E62022F68690FBF400000EB04
:10114000400100F0010000EB5100A96900F2FF101E
:10115000B1EB502F03D20D2004B0BDE8F087802002
:101160002871C5F810A0C5F80CA0032F01BF95F891
:10117000610095F8601041EA0021012927D1611C26
:101180002846FFF7CEF810BB287195F82F1295F876
:101190002E0240EA0120404519D105F13000FEF74A
:1011A000F3FFDFF86816884211D105F50570FEF7E8
:1011B000EBFFDFF85C16884209D105F50670FEF7F3
:1011C000E3FF286105F50770FEF7DEFFE8602F708A
:1011D000B9F82000401CA9F82000E8802846FFF755
:1011E00066F8002004B0BDE8F08770B50446092613
:1011F0000D46002C1CBF216800290FD0087868B16B
:10120000A088CA88904209D1487801F003F8C00745
:1012100004D4206828600026304670BD0020286075
:10122000304670BD2DE9F247002985B004461746C7
:101230003FD000E0491C0878212813D33A2811D068
:1012400011F8010F21280DD33A280BD011F8010F06
:10125000212807D33A2805D011F8010F212801D3FE
:101260003A28E7D108783A2809D1059A12F8010BF3
:1012700030380A281DD28A4208BF002819D1DFF869
:101280008865756A25B12846FFF711F80020287097
:1012900024B90020706206B0BDE8F08700202070FD
:1012A000012F746240F0908105A8FFF76BFD0400E8
:1012B00003D50B2006B0BDE8F08706F1240050F8F6
:1012C00024501DB90C2006B0BDE8F087287828B15D
:1012D000687800F09FFFC00740F1718100202870FE
:1012E0006C70687800F09FFFC00748BF032000F1D2
:1012F0006B8100244FF0FF3AEC70C5F82CA0002160
:101300002846FFF70EF8002840F0838095F82F025A
:1013100095F82E124AF6552841EA0021414540F041
:10132000528195F83000E92805D0EB2804BF95F8E4
:101330003200902811D105F16600FEF725FF20F05C
:101340007F40DFF8BC1488426AD005F18200FEF7C6
:101350001BFFDFF8B014884262D095F8F20168B143
:1013600095F8F90195F8F81195F8F72141EA00216F
:1013700095F8F60142EA012240EA0220009095F831
:10138000020268B195F8090295F8081295F807224B
:1013900041EA002195F8060242EA012240EA0220D1
:1013A000019095F8120268B195F8190295F8182283
:1013B00095F8173242EA002295F8160243EA022312
:1013C00040EA0320029095F8220268B195F82902BC
:1013D00095F8282295F8273242EA002295F826024D
:1013E00043EA022340EA03200390A1466F463C688B
:1013F00024B121462846FFF7FAFC00E0032001282B
:1014000005DD09F101093F1DB9F1040FEFD30428EF
:1014100003D1012006B0BDE8F087012800F3D38096
:1014200095F83C0095F83B1041EA0021B1F5007FAA
:1014300040F0C98095F8471095F8460050EA012021
:1014400004BF05F15400FEF79FFE95F84010A86117
:10145000012918BF0229A97040F0B58001FB00F9ED
:1014600095F83D006881010000F0AD80421E1042F9
:1014700040F0A98095F8421095F8410040EA01201B
:1014800010F00F0F288140F09E8095F8440095F8E9
:10149000431051EA002104D105F15000FEF774FE1B
:1014A000014695F83F0095F83E2052EA002200F0F0
:1014B0008A80288909EB020303EB10139942C0F0DC
:1014C00082806F89C91AB1FBF7F100297BD003270D
:1014D0004FF6F67C614538BF022740F6F67C614541
:1014E00038BF0127891C12191B19032F6961EC6190
:1014F0002A62AB6210D195F85B1095F85A2052EA37
:10150000012208BF00285ED105F15C00FEF73CFE19
:101510006862686980000EE0002854D0286A484458
:101520006862022F68690FBF400000EB400100F0C5
:10153000010000EB5100A96900F2FF10B1EB502F40
:1015400041D380202871C5F810A0C5F80CA0032F46
:1015500001BF95F8610095F8601041EA002101296A
:1015600025D1611C2846FEF7DCFE00BB287195F8EA
:101570002F1295F82E0240EA0120404517D105F1BF
:101580003000FEF701FEA149884210D105F5057033
:10159000FEF7FAFD9E49884209D105F50670FEF76F
:1015A000F3FD286105F50770FEF7EEFDE8602F708A
:1015B000308C401C3084E8802846FEF778FE0020FE
:1015C00006B0BDE8F0870D2006B0BDE8F08700004A
:1015D000E49A00082DE9F24104008DB008BF09200B
:1015E00000F00A8102F03F073A4669460DA8FFF76E
:1015F00036FC060040F0FD8000980D99019001A88E
:10160000FFF722FA06000FD19DF83300010648BF0C
:10161000062609D407F0FE00411E8941C943C90FBF
:1016200001A8FEF7BCFD064617F01C0F00F0BE80B7
:10163000300000F0B180042E40F0DB807249086871
:1016400000281EBF08690028122603D101A8FFF751
:1016500019F90646300047F0080745D138074AD542
:1016600000F060FE099901F80E0F020A130A1D0A24
:101670004A708B70CD70099901F8160F4A708B7003
:10168000CD7020200999C872DDF824800098414669
:10169000FFF7DCF8054600980021002288F81A10B0
:1016A00088F81B200078032804BF88F8141088F8F5
:1016B0001510099800F81C1F42708170C17001203C
:1016C0000099C8709DB10098D0F82C80294601A8D7
:1016D000FEF791FF060007D100984146FEF721FE74
:1016E000064600986D1EC560300040F082803807C5
:1016F00048BF47F040070098C16A616207F0FE01E9
:101700000998A062491E8941C943C90F01A8FEF783
:1017100079FD002820613DD0099D00982946FFF7FA
:1017200095F8A06005F11C00FEF72EFDE06000209A
:10173000E062009921600098C188A1800020607556
:101740002062A06127754FF4007104F1300000F0B1
:10175000A1FDB8064FD5E568002D4CD0A5610098D5
:101760004789A1687F02AF420DD22046FEF75CFE9A
:101770000146022928D311F1010F28D0ED1B3000BA
:10178000F1D0E16135E0E805E16134D00098FEF781
:101790003EFE08BB02262CE09DF80A0010F0110F57
:1017A00010D178077FF55AAF082622E030009BD190
:1017B0009DF80A00C10648BF04261AD4B90796D579
:1017C000C00794D5072614E00226E16111E04FF02E
:1017D000FF300126E0610CE000EB5520206202465C
:1017E00000984078012304F1300100F030FD10B181
:1017F00001260020206030460EB0BDE8F0810000D8
:101800004641540046415433BC18002052526141B5
:10181000727241612DE9F04715469A4682B0002266
:101820008846CAF8002006466946FFF7DEFC01003C
:1018300040F0BA80707D010040F0B680307DC10775
:1018400058BF072040F1B080F068B469041BAC4277
:1018500040F294802C4691E0F06A18B13046FEF7D1
:10186000CFFF03E0F1693046FEF7DEFD022843D3E7
:1018700010F1010F00F09280F0610098F769416962
:10188000BF1E891E8F4237D2009940898A6A00FBA9
:1018900007278FB3650A4F4433D005EB090188420F
:1018A00038BFA0EB0905009840782B463A464146E0
:1018B00000F0CDFC002871D1307D01061AD5306AC8
:1018C000C71BAF4216D208EB472106F13002802039
:1018D00012F8013B01F8013B401E12F8013B01F8F0
:1018E000013B12F8013B01F8013B12F8013B01F802
:1018F000013BEDD16D0237E00220707502B0BDE80A
:10190000F087326ABA4218D0307D01060CD50098B3
:101910004078012306F1300100F0A4FC00283DD1FD
:10192000307D00F07F0030750123009840783A4602
:1019300006F1300100F08BFC80BB3762B269C2F364
:101940000802C2F500702546844288BF054628007B
:1019500006F1300341461A4400F0068012F8013BBC
:1019600001F8013B401EF9D1B0692818B061A844C4
:10197000DAF800106918CAF80010641B9CB1B1694C
:10198000C805DBD100984089401E10EA51297FF438
:1019900074AF00297FF460AFB06867E7012070750D
:1019A00002B0BDE8F087002002B0BDE8F08700007B
:1019B0002DE9F04F1446984681B000228946C8F8B8
:1019C000002007466946FFF710FC010040F0138134
:1019D000787D010040F00F81387D810758BF0720D6
:1019E00040F10981B8692118814280F0CE804FF022
:1019F000FF32141AC9E000BF4FF0FF3259462846A3
:101A0000FEF776FD68B9C5F80CB069692869891ECA
:101A1000814224BF401E2861287940F001002871CE
:101A200005E001280CBF4FF0FF3B4FF0010B58467B
:101A3000002800F0DB80012867D010F1010F00F0D2
:101A4000DD80B968F86101B9B860387D01060ED54E
:101A500000983A6A4078012307F1300100F002FC57
:101A6000002840F0CB80387D00F07F00387500986A
:101A7000FD694169AD1E891E8D4246D2009940899B
:101A80008A6A00FB0525002D3FD0660A554441D0E7
:101A900006EB0A01884238BFA0EB0A06009840789E
:101AA00033462A46494600F0DDFB002840F0A68078
:101AB000386A451BB5421BD207F1300109EB4522BC
:101AC0005FF0800012F8013B01F8013B401E12F864
:101AD000013B01F8013B12F8013B01F8013B12F810
:101AE000013B01F8013BEDD1387D00F07F003875F6
:101AF00076023BE0F86A18B13846FEF781FE97E7B8
:101B0000F9693846FEF727FE92E70220787501B0A2
:101B1000BDE8F08F386AA8420DD0B969F8688142F3
:101B200009D20098407801232A4607F1300100F0DD
:101B30008EFB002862D13D62B969C1F30801C1F58D
:101B400000702646844288BF064607F13002300006
:101B500011444A4600F0068012F8013B01F8013BAF
:101B6000401EF9D1387D40F080003875B144B86925
:101B7000F9683018B861884238BF0846F860A41B7D
:101B8000D8F800003018C8F800007CB3B969C8055F
:101B9000D2D100984289521E12EA512A7FF455AFE1
:101BA0000029A7D1B86800287FF442AF3D68EE68ED
:101BB00016B16869864200D30126B34668690BF105
:101BC000010B834503D3012E4FF0020B0ED959466A
:101BD0003846FEF729FC00283FF40EAF012818BF55
:101BE00010F1010F3FF427AFB345E7D1387D40F046
:101BF00040003875002001B0BDE8F08F01207875F5
:101C000001B0BDE8F08F70B582B004466946FFF7B9
:101C1000ECFA010043D1217D4A0640D508060FD5D4
:101C20000098226A4078012304F1300100F01AFB89
:101C300010B1012002B070BD207D00F07F00207542
:101C400000F070FB0546616A0098FEF76AFB010030
:101C500025D1A66AF07A40F02000F0723146A268E1
:101C60002068FEF702FEE0683077B575000A7077ED
:101C70002D0A000AF575B0772D0A000A3576F0773F
:101C80002D0A75760020B074F07401200099C87098
:101C90000098FEF760FB217D01F0BF01217502B0C5
:101CA00070BD10B582B00446FFF7ADFF01000CD146
:101CB00069462046FFF799FA010006D12069FEF730
:101CC000DCFA010004BF0021216002B010BD000059
:101CD0002DE9F34F89B0934609A8FFF753F80400A4
:101CE00048BF0B2600F1C581DFF8008408F124000D
:101CF00050F8245025B90C2630460BB0BDE8F08FC3
:101D00002878A946A8B1687800F084FAC00710D4F2
:101D1000CBF800900026D9F81400D9F810100A9DCD
:101D2000821E8A42C0F08081296030460BB0BDE837
:101D3000F08F002028706C70687800F074FAC0078B
:101D400048BF032600F195810024EC704FF0FF3668
:101D5000EE6200212846FEF7E4FA002840F0838076
:101D600095F82F0295F82E1241EA00214AF65520E7
:101D7000814240F0548195F83000E92805D0EB28E5
:101D800004BF95F83200902810D105F16600FEF7E7
:101D9000FBF920F07F40DFF8581388426BD005F143
:101DA0008200FEF7F1F9D349884264D095F8F20138
:101DB00068B195F8F90195F8F81195F8F72141EA1D
:101DC000002195F8F60142EA012240EA022005903E
:101DD00095F8020268B195F8090295F8081295F88D
:101DE000072241EA002195F8060242EA012240EA70
:101DF000022005A9486095F8120268B195F8190209
:101E000095F8182295F8173242EA002295F8160242
:101E100043EA022340EA0320886095F8220268B171
:101E200095F8290295F8282295F8273242EA0022EF
:101E300095F8260243EA022340EA0320C860A2463E
:101E400005AF3C6824B121462846FEF7D0FF00E0EC
:101E50000320012805DD0AF1010A3F1DBAF1040F34
:101E6000EFD3042804D1012630460BB0BDE8F08F33
:101E7000012800F3D48095F83C0095F83B1041EA26
:101E80000021B1F5007F40F0CA8095F8471095F821
:101E9000460050EA012004BF05F15400FEF774F932
:101EA00095F84010A861012918BF0229A97040F0D7
:101EB000B68001FB00FA95F83D006881010000F052
:101EC000AE80421E104240F0AA8095F8421095F86C
:101ED000410040EA012010F00F0F288140F09F8060
:101EE00095F8440095F8431051EA002104D105F11A
:101EF0005000FEF749F9014695F83F0095F83E205D
:101F000052EA002200F08B8028890AEB020303EBDF
:101F100010139942C0F083806F89C91AB1FBF7F1A1
:101F200000297CD003274FF6F67C614538BF022795
:101F300040F6F67C614538BF0127891C12191B1930
:101F4000032F6961EC612A62AB6210D195F85B10D6
:101F500095F85A2052EA012208BF00285FD105F106
:101F60005C00FEF711F96862686980000EE00028E5
:101F700055D0286A50446862022F68690FBF40003C
:101F800000EB400100F0010000EB5100A96900F2F4
:101F9000FF10B1EB502F42D32E61EE6080202871EC
:101FA000032F01BF95F8610095F8601041EA002108
:101FB000012929D1611C2846FEF7B3F920BB2871FD
:101FC00095F82F1295F82E0240EA01204AF6552185
:101FD000884219D105F13000FEF7D6F8DFF8181164
:101FE000884211D105F50570FEF7CEF8DFF80C1127
:101FF000884209D105F50670FEF7C6F8286105F597
:102000000770FEF7C1F8E8602F70B8F82000401C98
:10201000A8F82000E8802846FEF749F978E60D2662
:1020200030460BB0BDE8F08F99F800100129B34697
:1020300025D10224CDF8009021466846FEF7F4F938
:1020400010F1010F0AD0012817D008B90BF1010BCC
:10205000D9F81400641C8442EED300E00126C5F8D0
:1020600000B0C9F810B099F8040040F0010089F8F8
:10207000040030460BB0BDE8F08F0226EFE7D9F838
:1020800020A04FF40077044651464846FEF749F930
:10209000002806460AF1010AE1D109F13002394669
:1020A0004FEA040099F80030022B09D153781478D4
:1020B00054EA032408BF0BF1010B921C891E0FE0A8
:1020C000D378947844EA0324537843EA04231478B9
:1020D00044EA0324230108BF0BF1010B121D091F61
:1020E000401EBCD00029DDD1CDE70000BC18002087
:1020F000464154004641543352526141727241612B
:1021000070B50D4682B004460A2D04BF0D21FFF7BD
:10211000F7FF6668002E16D404F10C008555761C76
:102120003D2E0CDB20686B46324604F10C01FFF7B4
:102130003FFC0098B0420CBF00264FF0FF36A0686D
:102140006660401CA06002B070BD10B5044682B04D
:102150006268002A0CD420686B4604F10C01FFF77A
:1021600027FC002801BF606800998842A06801D060
:102170004FF0FF3002B010BDF0B595B005460191AB
:102180004FF0FF360021029103911DE00A2C03D18C
:102190000D2101A8FFF7B4FF029F002F13D404A85C
:1021A000C4557F1C3D2F0ADB01986B463A4604A9B3
:1021B000FFF7FEFB0098B84214BF3746002703988C
:1021C0000297401C03906D1C2C78002CDED101A8D6
:1021D000FFF7BBFF15B0F0BD000030B4002513E0E1
:1021E00050F8042BD30744BFA9F101039A18091F23
:1021F000042942F8045BFAD213468C0744BF1580C9
:102200009B1CC90748BF1D7050F8041B0029E7D16B
:1022100030BC704701461E4A531802EB81014A68E0
:10222000187A516808471A4B02460020995C002929
:1022300000D0704710B481B001249C5403EB82019C
:102240009C184A68207A136801B010BC184770B512
:1022500004460F4D2E1905EB84046568307AAC688E
:10226000A04770BD70B50446094D2E1905EB8404D6
:102270006568307AEC68A04770BD30B40346044C02
:10228000E51804EB83035C68287A236930BC18479F
:10229000E4180020002200F009B80268531C036013
:1022A0001170704762F30F2262F31F42401810F062
:1022B000030308D0C91A1FD3DB0748BF00F8012D5C
:1022C00028BF20F8022D130030B4144615461039EB
:1022D00028BF20E93C00FAD8490728BF20E90C00B4
:1022E00048BF40F8042D890028BF20F8022D48BFC0
:1022F00000F8012D30BC7047C91818BF00F8012D37
:10230000CB0728BF00F8012D70472E0010B5034CF5
:102310000348211D00F008F8207010BDF0180020BF
:10232000680100200020704730B40E4C627A0346EA
:102330000120AAB9627A0020A0540022607A04EB3E
:1023400080056B60607A20440272607A421C62727F
:10235000303008702F223A2048708A700020C870F0
:1023600030BC7047E41800202DE9F14FB0B0924620
:1023700004910DF142013A9A2B9199464A7000203E
:102380000AE01AF8011B0498309A9047002804903C
:1023900000F0B4860D98401C0D909AF8000050B1E2
:1023A0002528EED1002100220791089209910A9276
:1023B0000B910C9204E00D9800F0A2BE41F00101D7
:1023C0001AF8010F2028F9D023280CD02B2804D08C
:1023D0002D2805D0302809D00BE041F00201EFE7AD
:1023E00041F00401ECE741F00801E9E741F0100198
:1023F000E6E72A280FD1D9F8002052F8040BC9F8D3
:10240000002000280F9003D540420F9041F00401B6
:102410000AF1010A14E00F92DFF824380AE00F985D
:10242000984205DA00EB800402EB4402303A0F9246
:102430000AF1010A9AF80020A2F130000A28EED32E
:102440009AF800002E2803D04FF0FF320E9229E0B8
:102450001AF8010F2A2809D1D9F8000050F8042BE6
:10246000C9F800000E920AF1010A1BE02D280CBFEA
:102470000AF1010A002000220E92DFF8C4470BE0A7
:1024800040B90E9AA24205DA02EB820503EB45033E
:10249000303B0E930AF1010A9AF80030A3F13002A2
:1024A0000A2AEDD3ADF84010DFF89807784400F21F
:1024B00094709AF8001000F039FF08B11AF8010B77
:1024C0008DF842009DF84200682805D19AF8000076
:1024D00068280CD1622106E06C2804BF9AF800003D
:1024E0006C2804D171218DF842100AF1010A12A85A
:1024F00006901AF801BBBBF125012CD01C3900F065
:10250000D081091F022940F2CC81133900F02185C6
:10251000093900F0C681891E00F0B685491E00F019
:102520006385491E022940F2BC81091F00F05C85C9
:10253000491F00F02881491E00F00B85491E00F05C
:10254000D080C91E0DD0891E00F00385C91E00F081
:10255000008500F0A4BD25238DF84830012100F04E
:10256000A9BDD9F8000050F8044BC9F80000002CB0
:10257000059440F0A3802B994878002800F09980BA
:102580004FF0FF340FF6803000F0DCFE201A40F0F0
:10259000B58500F090BD6D1E40F0A7853096079D73
:1025A00012AF75B1309E17F8012B02A9304600F02A
:1025B00071FE002801D46D1EF5D10028309640F040
:1025C0009D850A9D3020002D8DF804000CDD309E85
:1025D000012301AA02A9304600F06CFE002840F059
:1025E0008D856D1EF4D13096059F089D75B1309E86
:1025F00017F8012B02A9304600F04CFE002801D448
:102600006D1EF5D10028309640F078850B9D302066
:10261000002D8DF804000CDD309E012301AA02A9D3
:10262000304600F047FE002840F068856D1EF4D16A
:10263000309605980899099D471875B1309E17F88E
:10264000012B02A9304600F025FE002801D46D1EA2
:10265000F5D10028309640F051850C9D3020002D9A
:102660008DF804000CDD309E012301AA02A930463A
:1026700000F020FE002840F041856D1EF4D1309618
:102680009DF8400041077FF588AE2020002C8DF892
:1026900004007FF782AE309D012301AA02A92846DB
:1026A00000F008FE002840F02985641EF4D1309522
:1026B00073E60FF66040059000F0FDBC0E9D002D06
:1026C00004D5204600F05EFE044607E02A46204678
:1026D00000F074FE002814BF041B2C46089400F080
:1026E000EABCD9F8001051F8040BC9F8001020F02A
:1026F0000004002121F0FF3512ABCDE9024505931E
:10270000DDE9022306993C2413B90AB90E9898B161
:1027100002F00F053035641EEEB23A2EA8BF273501
:10272000120942EA03721B090D5508BF002A03D0A3
:1027300005980D19A842EBD308190590C4F13C0285
:102740000E98089282420ADABDF84010821A4FF6BB
:10275000EF7001400A92ADF8401000F0ACBC0028C8
:1027600040F1A9849DF8400000F01400102840F0CA
:10277000A2840F9B07990A985B1A1B1A9A1A002ABF
:1027800040F39984E3E32B99487820B14FF0FF346C
:102790000FF65030F8E69DF84200622861D06828B4
:1027A00017D06A283FD06C2806D0712847D07428EB
:1027B0002CD07A281DD064E0D9F8001051F8040B11
:1027C000C9F80010002868D14FF0FF340FF62C3004
:1027D000DAE6D9F8001051F8040BC9F8001020B956
:1027E0004FF0FF340FF61430CEE60D99018000F063
:1027F00062BCD9F8001051F8040BC9F80010002889
:102800004BD14FF0FF340FF6F420BDE6D9F800109D
:1028100051F8040BC9F8001000283ED14FF0FF34E6
:102820000FF6D820B0E6D9F8001051F8040BC9F81B
:10283000001080B94FF0FF340FF6C020A4E6D9F89D
:10284000001051F8040BC9F8001020B94FF0FF3404
:102850000FF6A82098E60D9AD317C0E9002300F0E0
:102860002ABCD9F8001051F8040BC9F8001020B99F
:102870004FF0FF340FF6842086E60D99017000F0CA
:102880001ABCD9F8001051F8040BC9F8001020B98F
:102890004FF0FF340FF6642076E60D99016000F0EA
:1028A0000ABCD9F80020D21D22F00702C9F8002086
:1028B000D2E900010832C9F80020CDE90201C80FB1
:1028C00002D007982D210AE0BDF84000810702D50B
:1028D00007982B2103E0C00705D50798202112AAED
:1028E0001154401C079012A807994BF0200243187E
:1028F000DDE90201CDE92C01612A059321AC0BD061
:102900000E98002802D506200E9005E001BF4BF07E
:102910002000672801210E91DDE9020148004015E1
:10292000401C0A460DD109030BD0ABF16105032011
:102930001A2D089002D20FF6E0110DE00FF6DC110F
:102940000AE070B912030CD1ABF1610503201A2D16
:1029500008901AD30FF6CC110322184600F05AFD46
:10296000A9E3DDE90201CDE92E01DDE92E2323F003
:102970000047B7F5801F22F000060DD20022002F7D
:1029800008BF002E009203D116E00FF69411E3E782
:102990006A4600F093FD0FE0DFF8D808DFF8D8189A
:1029A00000EB17500090DDE92E234FF0FF30194067
:1029B000DFF8C87810403943CDE902014BF0200020
:1029C00061280DD1059830210170821CBBF1610F87
:1029D00005920CBF7821582141700798801C079000
:1029E000DDE9020120F0000231F0004308BF002AB7
:1029F00002D10026002567E14BF02008B8F1610FF5
:102A000040F0B4800E98002847BF21210191401C5E
:102A10000190019FDDE92C017F1C00220023DDE9EC
:102A2000024500F083FD00998DF8842038BF85F0C1
:102A30000045091F002F00910DF1850653DD20464A
:102A400029460022002300F089FD4CD24800400DA9
:102A500000F11C0312D0002B10DD40F2FF70834206
:102A600006DBDFF81C1805F000421143002011E0DE
:102A70006FF31E5141EA035120460BE024F00000A1
:102A800035F0004108BF00280FBF29461C22294607
:102A900000F07CFD04460D4600F016FEFF1F002FDF
:102AA000804609DD00F02EFE02460B4620462946F0
:102AB00000F03AFE04460D46F01D0721B8F1000F64
:102AC0000CDD491E5EBF08F00F0200F8012D4FEA31
:102AD0002818F3D502E0002200F8012D491EFAD58E
:102AE000C61D002FABDC0DF18500361A0198864219
:102AF000D8BF304600280DF1850430D4B04206DA44
:102B00000DF185010A5C082AA8BF0F2100DA002117
:102B1000024621AB134400E0401E13F80159521E37
:102B20008D42F9D00F2904D10DF185018B5C5B1C1E
:102B30008B54002A04D50099091D21AC401C00913A
:102B4000411E0CD46218ABF13A0613783033DDB273
:102B50003A2DA8BFF318491E02F80139F5D50E9990
:102B6000002940F1AF80421E0E92ABE00099DFF8E1
:102B7000142747F29750414391FBF2F2DDE92C45CF
:102B8000009225F00045D2F1070204DD20462946D7
:102B900000F04DFB0BE052420020DFF8EC1600F095
:102BA00046FB02460B462046294600F02FFE04460F
:102BB000B8F1660F0E9806BF009F0A3706273F1828
:102BC000142FC8BF142730200D468DF884000DF156
:102BD0008506002F38DD2046294600F03BFF0146E0
:102BE0000A4606F1080304200A26B2FBF6F606EBB5
:102BF000860EA2EB4E02303203F8012C0A22B6FBFD
:102C0000F2F202EB820EA6EB4E063036401E03F8BF
:102C1000026DE9D1083F002F03F10806D9DD08460F
:102C200000F02CFF02460B462046294600F07CFDB2
:102C30000022DFF8583600F02FFF04460D46CAE7A1
:102C4000CBCCCC0C747300000DF18500361A0DF15D
:102C5000850404E00098401E761E0090641C2078D5
:102C60003028F7D0B8F1660F02D10099491C04E072
:102C7000B8F1650F0CBF012100210E98081886429B
:102C8000B8BF701E00281DD4B04204DA215C34297C
:102C9000C8BF392100DC30210246631E9D1800E0C8
:102CA000401E15F80169521E8E42F9D0392902D111
:102CB000A15C491CA154002A04D50099491C1C465A
:102CC000401C00910646009D00F0B8FF406A07785E
:102CD000DDF8388030B2002802DC01260FF24864AB
:102CE0004BF02000662808BF6D1C16D0672846D11F
:102CF00028B210F1040F48DB404546DA9DF8400049
:102D00006D1C010703D430B24045B8BF804628B2DD
:102D1000B8EB000848BF4FF000080FFA85FBBBF185
:102D2000000F00F3B5800898411C089130220599E6
:102D30000A54B8F1000F03DC9DF84000010704D5E8
:102D40000898411C089105990F5418EB0B0FB8BF58
:102D5000C8F100052DB268420B90A84432B29045EC
:102D6000B8BF4646059B089836B2099632462146BA
:102D7000184400F04FFBA8EB06000C90D2E0BBF12A
:102D8000610F17D14FF0700B19E030B2404504DAF3
:102D90009DF840100A0758BF8046B8F1010848BFA7
:102DA0004FF00008BBF1670F14BF4FF0450B4FF019
:102DB000650B04E0BBF1410F08BF4FF0500B0898C2
:102DC000411C0891B8F1000F059914F8012B0A5421
:102DD00003DC9DF8400001071AD50898411C0891B2
:102DE000B8F1000F05990F5412DD761E30B2804500
:102DF0000598089BB8BF464632B22146184400F0F9
:102E000009FB089936B271180891A8EB06000B90DF
:102E100005980899084429B2002980F800B003D425
:102E20002B224270821C04E02D2242700D46821C2F
:102E30006D4200212CAB28460AE004460A2094FB90
:102E4000F0F000EB8005A4EB450403F8014B491CAE
:102E500000B20028F1DC012906DC4BF020006528D7
:102E600004BF302002F8010B00292CAB08D1302020
:102E700002F8010B06E0491E585C303002F8010BE5
:102E80000029F8DC059908980844121A099249E0CB
:102E900030B229B288421CDA0598089B32B221462A
:102EA000184400F0B7FA089936B27118ABEB060671
:102EB000B8F1000F08910B9603DC9DF84000020763
:102EC00004D5059847540999491C0991CDF83080DB
:102ED00028E00598089B2AB22146184400F09AFA87
:102EE0000898761B5844B8F1000F089003DC9DF851
:102EF00040100A0703D5411C089105990F5430B2C0
:102F000080450598089BB8BF464632B204EB0B01DA
:102F1000184400F07FFA089836B230180890A8EBF1
:102F200006000B909DF8400000F01400102840F0BF
:102F3000C280079A08990B988A18099982180C98E8
:102F40008A1882180F98824280F2B580821A0A92FB
:102F5000B1E09DF84200622808D068280ED06A28A7
:102F600014D06C281FD0712810D01CE0D9F80010A4
:102F700051F8040BC9F80010C0B21AE0D9F80010DB
:102F800051F8040BC9F8001080B212E0D9F8002003
:102F9000D21D22F00702C9F80020D2E90001083250
:102FA000C9F8002006E0D9F8001051F8040BC9F860
:102FB00000100021CDE902019DF8400001075AD51B
:102FC000DDE90223002B08BF002A54D04BF020007B
:102FD000782850D1079812A930220A54401C431C6B
:102FE000079301F800B046E09DF84200622808D03F
:102FF00068280ED06A2814D06C281FD0712810D0F1
:103000001CE0D9F8001051F8040BC9F8001040B2C8
:103010001AE0D9F8001051F8040BC9F8001000B2FA
:1030200012E0D9F80020D21D22F00702C9F80020D2
:10303000D2E900010832C9F8002006E0D9F80010F2
:1030400051F8040BC9F80010C117CDE9020100299D
:1030500002D507982D210AE0BDF84000810702D56E
:1030600007982B2103E0C00705D50798202112AA55
:103070001154401C079012A807990144059102A819
:10308000594600F04FF816E001200790D9F80000EB
:1030900050F8041BC9F800008DF848100BE02521FA
:1030A0000122BBF1000F8DF84810079203D08DF874
:1030B00049B0022107910F9A07980A990C9C121A9D
:1030C0000898521A0B99121A0998521A121A9DF856
:1030D0004000141B41073FF562AA2020002C8DF808
:1030E00004007FF75CAA309E2546012301AA02A9AD
:1030F000304600F0DFF800283FF44DAA4FF0FF30D3
:1031000031B0BDE8F08F00007072696E74665F7355
:103110003A2062616420257320617267756D656E67
:10312000740000002DE9FC4307466F293E6908BF83
:10313000082405D041F02000782814BF0A24102468
:103140003C25D7E90023642918BF69299046994690
:1031500005D1002B03D5D8F1000869EB4909B9F175
:10316000000F08BFB8F1000F0CD1386B50B9082C14
:1031700039D197F83800010735D530203B2586F83E
:103180003B0030E08DF80010404649462246E317E8
:1031900000F058FD3032D0B26D1E3A28019504DBA4
:1031A0009DF80000A0F151018A1872554046494629
:1031B0002246E31700F046FD80465FEA010908BF9A
:1031C000B8F1000F03D0F86871198842DCD3082CDD
:1031D00009D197F83800010705D5705D302802D075
:1031E0006D1E30207055C5F13C02BA617119F9604D
:1031F000386B824208DA821A3A624FF6EF70398FE2
:1032000001403987BDE8F38300280ED597F83800D0
:1032100000F01400102808D17B6B7969386A5B1ABA
:103220001B1A9A1A002AC8BF3A62BDE8F3832DE937
:10323000D04306460F4614464FF00008DFF8509082
:1032400012E0E00707D542464B463046394600F0CB
:1032500023FC06460F464046494642464B4600F090
:103260001BFC641080468946002CEAD13046394662
:10327000BDE8D08302FCFFFFFFFF0F800000E03FAE
:103280000000F07FA08601000000F03F84D7974146
:103290000000244010B503460C461146A06898472C
:1032A000A06020B1E06A401CE062002010BD4FF039
:1032B000FF3010BDF8B505460E4617461C460020E7
:1032C0005CB117F8011BB068A847B06030B1F06A74
:1032D000401CF0620020641EF3D1F2BD4FF0FF30BD
:1032E000F2BD00007072696E74665F733A20256EDD
:1032F00020646973616C6C6F776564007072696ECD
:1033000074663A2062616420256E20617267756D73
:10331000656E7400000000006E616E004E414E004C
:10332000696E6600494E460030000000C9B202785E
:103330008A421AB11CBF10F8012FF9E718BF00200C
:103340007047000080B500B906A005490B681BB1A5
:1033500022220021984701E000F08CFD222002BDCE
:1033600004190020636F6E73747261696E74206853
:10337000616E646C65723A20626164206D6573737E
:103380006167650000F10103810704D010F8011B9B
:10339000820781B1FAD10268A2F10131914311F0A3
:1033A000803104BF50F8042FF6E709BAB1FA81F171
:1033B00000EBD100401CC01A70470000C9B283075F
:1033C00006D0521E22D310F8013B9942F7D11FE0DC
:1033D000083A13D302F1040241EA012141EA014112
:1033E00050F8043B121F21BF4B40A3F1013C2CEAD3
:1033F000030C1CF0803FF3D0C9B2001F083210F854
:10340000013B521E28BF91EA030FF8D818BF0120D4
:10341000401E704762B38B0708D0521E11F8013B63
:1034200000F8013B00F024808B07F6D1830740F0C1
:10343000208000BF103A07D330B4B1E83810103AFA
:10344000A0E83810F9D230BC530724BFB1E8081007
:10345000A0E8081044BF51F8043B40F8043BD207F1
:1034600024BF31F8022B20F8022B44BF0B780370E5
:103470007047121F17D35B0009D151F8043B20F8A5
:10348000023B1B0C121F20F8023BF6D20BE051F856
:10349000043B00F8013B1B0A20F8023B1B0C121FE7
:1034A00000F8013BF3D238BF121D521E24BF11F8A1
:1034B000013B00F8013BF8D87047000010B51446F6
:1034C00000F002F8226010BDC1F30A5343B14A0074
:1034D00012F5001F28D2A3F2FE32A1EB0251704771
:1034E00050EA410C20D001F0004C31EA0C01B1FA55
:1034F00081F204BFB0FA80F3D2180B3AB2F1200384
:103500002CBF00FA03F1914041EA0C013EBFC2F129
:10351000200C20FA0CF319439040524240F2FD3344
:10352000D21A01EB03517047002270474FF4001C80
:103530001CEB410F94BF1CEB430F09E041EA030C65
:1035400050EA4C0C52EA0C0C03D2994208BF90424C
:10355000704714BF8B428242704700004FF4001C3A
:103560001CEB410F94BF1CEB430F09E041EA030C35
:1035700050EA4C0C52EA0C0C03D28B4208BF824238
:10358000704714BF9942904270470000124254D4D1
:1035900040F2FF7C1CEA11530FD0634531D09B18D9
:1035A00063453CBF01EB0251704701F0004141EA25
:1035B0000C510020AFF30080704750EA410320D047
:1035C00001F0004C91EA0C011CD0B1FA81F30B3BE5
:1035D0009A420DD9D21A994051EA0C01C3F1200C3C
:1035E00020FA0CFC61449840531C40F2FF7CD7E762
:1035F000914041EA0C01C2F1200C20FA0CF319436E
:1036000090407047B0FA80F31533202BE0D3202A86
:10361000EED3203A203B9A4209D9D21A00FA03F19C
:1036200041EA0C010020531C40F2FF7CB8E700FA8D
:1036300002F141EA0C0100207047524240F2FF7C47
:103640001CEA11530DD06345DBD0B2EB030C3CBF39
:10365000A1EB025170470CF1010221EA035141F440
:10366000801150EA410CCCD001F0004C352A27DC07
:1036700030B481EA0C01B2F1200309DAC2F120036F
:10368000044601FA03F5D0402843D1409C400CE0A9
:10369000C3F12002450020FA03F418BF44F00104EE
:1036A00021FA03F091400C43002174F1004550F1E0
:1036B000000051EB0C01244230BC7FF47BAF70471B
:1036C0006146002076E70000C1F30A5340F2FE3263
:1036D0009B1A14DDD3F120034FEAE17208DDC90221
:1036E00041EA505141F00040D840801850407047A6
:1036F00003F2E13010B1D24382F000407047002065
:1037000070470000C11768B14840401AB0FA80F213
:103710009040D21CC907C2F5846241EA025202EB12
:10372000D02140057047000070B44FF0004591EA89
:10373000030F40F1A3836B40841A71EB030603D29D
:10374000001BB141121973414FF4001C1CEB410FD7
:1037500034BF7CEB430442E00C0DA4EB1356352E32
:103760004FDC45EAC323DB0A45EAC121C912B6F1A1
:1037700020050DDD63FA05F6EB4086EA03051242EB
:1037800018BF45F00105C01851F100010CD213E03B
:1037900062FA06F5F2405540F3415A40B340F34017
:1037A0005A408018594107D349085FEA30005FEA60
:1037B000350528BF45F0010501F58011420875F176
:1037C000004250F1000041EB04514E0016F5001F7D
:1037D00070BC38BF70470020090D090570471CEB0D
:1037E000410F10D252EA43060BD0BCEB410F05D873
:1037F0000C0DAB43661E342EB6DD02E0AB438018E1
:10380000594170BC704770BC70470000F0B540F281
:10381000FF7581EA030C0CF0004C15EA11541DBF32
:1038200015EA1357AC42AF42E5E0BC41C1F31301C6
:10383000C3F31303801A994143F4801304D2641E26
:103840004000494180185941C90241EA5051B1FB39
:10385000F3F603FB1611A2FB0675D7EBC020A941B6
:1038600002D2761E80185941C90241EA5051B1FB7B
:10387000F3FE03FB1E11A2FB0E75D7EBC020A9417E
:1038800003D2AEF1010E80185941890241EA9051EC
:10389000760546EA8E2EB1FBF3F603FB1611A2FB6A
:1038A0000675D7EB8020A94102D2761E80185941B7
:1038B000C90241EA50514EEA060EB1FBF3F603FB92
:1038C0001611A2FB0675D7EBC020A94102D2761EC5
:1038D00080185941C90241EA5051B1FBF3F703FB8B
:1038E0001711A2FB0735D3EBC020A94167F10007F0
:1038F0000CBF004247F0010766F3D5274FEA1E319F
:10390000B80814F5806412DDBD0775F1004250EB74
:103910000E5051EB045111F5801F5CBF41EA0C01C0
:10392000F0BD4CF07F6141F0E0410020F0BDBD07EB
:103930006D0840EA0E5041F48011D4F10104B4F155
:1039400020060ADAC4F120060200E04001FA06F37C
:10395000E1401843B24015430EE0342C13DCC6F1AD
:10396000200445EA40056D0820FA06F2154321FAC5
:1039700006F0A1400D43002175F1004250F1000016
:1039800051EB0C01F0BD00205FEA0C01F0BDCFB996
:1039900092185B41B3FA83F704BFB2FA82F6BF19FB
:1039A0000B3FB7F120062FBF02FA06F3BB40C7F169
:1039B000200622FA06F638BF3343BA401CB1E41998
:1039C000641E33E77F4231F00041B1FA81F404BF55
:1039D000B0FA80F6A4190B3CB4F120062FBF00FA10
:1039E00006F1A140C4F1200620FA06F638BF3143A3
:1039F000A0403C1B1AE7AC421ABF05EA1357AF427E
:103A000012E050EA41061CBF52EA4306BFE750EA03
:103A10004107304661461CBF41EA0551F0BD52EAFC
:103A2000430C08BFC143F0BD00204FF4001616EB55
:103A3000410F98BF16EB430F08BF16EB410F24BF91
:103A4000C14305E016EB430F0CBF61464CEA05513C
:103A5000F0BD0000400D491840EA81200CD2490D0C
:103A6000A1F58061491C40F0004005DBD1F11F0148
:103A700054BFC840C017704700207047014648B186
:103A8000B0FA80F18840C91CC1F58461090501EBD9
:103A9000D021400570470000B0B581EA030C0CF05E
:103AA000004C40F2FF7515EA11541DBF15EA13577B
:103AB000AC42AF4239E0E41923EA455343F48013A2
:103AC000C90241F0004141EA505EC7021100A7FB64
:103AD000020200284FF00000EEFB01204FF0000131
:103AE000E3FB072118BF42F00102401800214941C1
:103AF000E3FB0E01A4F580640F0302D252004041A3
:103B0000494154F101046CDD470872F1004250F163
:103B1000000051EB0451A1F580115CBF41EA0C019A
:103B2000B0BD4CEA05510020B0BD05EA1357AC42C8
:103B300014BFAF4241E050EA410E1CBF52EA430EAF
:103B400002E061460020B0BD24423C441BD15FEA44
:103B5000070EF6D0090302BF01460020AEF1140E95
:103B6000B1FA81F7AEEB070401FA07FE0C37C7F193
:103B7000200100FA07F7C8404EEA000E23EA455339
:103B800043F48013A2E733F00043B3FA83F704BF92
:103B9000B2FA82FE77440B3FE41BB7F1200E2FBF31
:103BA00002FA0EF3BB40C7F1200E22FA0EFE38BF18
:103BB00043EA0E03BA40641C82E750EA410E14BF88
:103BC00052EA430E6FF000014FF4001717EB430F5A
:103BD0008ABF194617EB410FB5E74CEA05510020A3
:103BE000B0BDD4F10104B4F120070FDAC4F120070D
:103BF000520828BF42F0010210FA07F501FA07F750
:103C0000E1BF2A43E0403843E1400FE0352C98DC27
:103C1000C7F1200452EA400220FA07F218BF42F02E
:103C2000010231FA07F0A1400A43002172F100427B
:103C300050F1000051EB0C01B0BD0000004870478E
:103C40007C010020BBBBE1B1B2F5803F80F07E80FB
:103C5000022A1ED98C46B1FBF2F102FB11C31B04F0
:103C600043EA1043B3FBF2FC02FB1C3380B240EA90
:103C70000343B3FBF2F002FB103240EA0C40002396
:103C80007047022A05D98446B0FBF2F002FB10C24D
:103C900070474AB105D100F0010249085FEA3000DF
:103CA000704700220023704700F09EB90B0002000D
:103CB000002100207047904271EB030CF6D3B3F55E
:103CC000803F2FD2F0B5B3FA83F7B1FA81F4A7F1B0
:103CD0000F0E3D1B5340CEF1200602FA0EF2F341C7
:103CE0005340B5F10F0746D80F3C2C444140C4F176
:103CF0002006A040F1414140B1FBF3F603FB161151
:103D0000A2FB0645001BA94102D2761E801859412C
:103D100080EA010221FA0EF362FA0EF200215A4003
:103D20003046F0BD30B4B1FBF3FC03FB1C11A2FB29
:103D30000C45001BA94103D2ACF1010C801859417C
:103D400030BC02460B46604600217047B2F1807FCE
:103D500065D3F0B5B2FA82F7B1FA81F4C7F10F0674
:103D60003D1B22FA06F307F1110EF24120355A40AD
:103D7000B5F10F07B8D94140C4F12006A040F14188
:103D80004140B1FBF3FC03FB1C11A2FB0C45001BE3
:103D9000A94103D2BCF1010C801859410F2F12D355
:103DA0000F3FC90341EA5041B1FBF3F603FB161183
:103DB000A2FB0645D4EBC030A94102D2761E801882
:103DC000594146EACC3C07B34140C7F12006B84010
:103DD000F1414140B1FBF3F603FB1611A2FB06458E
:103DE000001BA94102D2761E8018594180EA0102C7
:103DF00021FA0EF3C7F1200462FA0EF20CFA07F072
:103E00005A402CFA04F13043F0BD80EA010221FA55
:103E10000EF3002162FA0EF260465A40F0BD8C4665
:103E2000B1FBF2F102FB11C31B0243EA1063B3FBC7
:103E3000F2FC02FB1C331B024CEA002043EA106335
:103E4000B3FBF2FC02FB1C331B024CEA002043EAEA
:103E50001063B3FBF2FC02FB1C331B024CEA002094
:103E600043EA1063B3FBF2FC02FB1C324CEA002075
:103E700000237047012000F0B9B80000841A71EBEC
:103E8000030604D26E40001BB141121973414FF476
:103E9000001C1CEB410F34BF7CEB430683E00C0D90
:103EA000A4EB1356362E00F37C80012E45EAC32383
:103EB00041DC43EA525312BFD20292025B0824054E
:103EC00045EAC12141EA5051D2EBC020994125D4A5
:103ED00007D1B0FA80F610FA06F162D00020203641
:103EE00008E0B1FA81F6B140C6F1200220FA02F2F0
:103EF0001143B0404FEAF474B4EB465434F0010679
:103F00004FEA74040AD8D6F50016760D04F0004482
:103F1000F04061FA06F25040F1404840C00A40EAE1
:103F2000415021F0004128BF5FEA500550F10000E8
:103F300044EBD12135E0DB0A45EAC121C90AB6F1DB
:103F400020050EDD42EA0242120CC5F1200603FAFA
:103F500006F6EB4042EA06056D42984161F1000128
:103F60000DE062FA06F5F240554063FA06FC82EA7B
:103F70000C02F3405A406D42904161EB030111F491
:103F8000801F05D1641E620502D06D004041494189
:103F900021F48011430875F1004350F1000041EB1A
:103FA000045170BC70471CEB410F15D223F0004345
:103FB00052EA43060BD04FEA4C0CBCEB410F04D83D
:103FC0000C0D661E342EB7DDEBE7801A994150EADE
:103FD000410608BF0021E4E708BF1CEB430F28BFE0
:103FE0006FF00001DDE700007047000080B500F0D1
:103FF00007F8024A11001820ABBEFBE726000200BA
:1040000010B500F013F8020000230024E443106808
:10401000A04203D011000220ABBE13605068A04242
:1040200003D0111D0220ABBE536010BD0048704785
:10403000AC0200200EB481B0DFF84C2A06990129A9
:104040002FD1816B21F480318163C368DFF83C1A82
:104050000B40C360C36823F44013C3600D9901296A
:1040600003D1C16841F48011C16000210091009921
:10407000491C9142009112D201690029F7D5002113
:104080000091036943F0010303610099491C9142C7
:10409000009104D20169CB07F7D4002228E0032263
:1040A00026E0C16841F04001C160002300930099FF
:1040B000491C9142009111D201690029F7D5009362
:1040C000036943F0010303610099491C9142009187
:1040D00004D20169CB07F7D4002200E003220A9939
:1040E0000029816B0CBF41F4803121F48031816360
:1040F0000499012907D1816841F006018160816836
:1041000041F020018160104604B07047022A58D166
:10411000DFF87C29DFF87C3952189A4238BF4FF417
:10412000705150D3DFF87029DFF8703952189A4275
:1041300038BF4FF4605146D3DFF86429DFF86439A3
:1041400052189A4238BF4FF450513CD3DFF85829E7
:10415000DFF8583952189A4238BF4FF4405132D3E1
:10416000DFF84C29DFF84C3952189A4238BF4FF427
:10417000305128D3DFF84029DFF8403952189A42ED
:1041800038BF4FF420511ED3DFF83429DFF834391B
:1041900052189A4215D3DFF830C9DFF830298C4421
:1041A000944538BF4FF400510DD3DFF82429DFF8D0
:1041B0002439511899422CBF4FF4C0514FF4E051AB
:1041C00001E04FF41051C26822F47052C260C2681C
:1041D0001143C16000207047816841F00101816096
:1041E00000207047816849084900816000207047BD
:1041F00030B5044681B0E068002520F0C0400129B8
:10420000E06011D1E06840F00050E060012000F073
:104210006FFC60696D1CC10701D4322DF6D3322DBD
:1042200014D1012001B030BD69B9E06840F0804090
:10423000E060012000F05CFC60696D1CC107EED5F8
:10424000322DF6D3EBE7012001B030BD002001B0E4
:1042500030BD00000EB42DE9F04F054681B00026B8
:1042600005F5827205201660566096600C32401E7D
:10427000F9D1149A05F500637AB9586840F0020044
:104280005860A86B40F40010A863A86B20F40020CD
:10429000A863A86B20F4802006E0A86B20F400102F
:1042A000A863A86B40F40020A86305F56060066071
:1042B000186818600F98012808D10C9808B9196877
:1042C00007E0186840F00100186003E0196841F049
:1042D0000301196000964FF484612961DFF8A80793
:1042E0000099491C8142009103D229698906F7D4BB
:1042F00000E0012600210091102129610099491C4C
:104300008142009103D22969C906F7D400E0012651
:10431000002018615861D8610A99002900F0918045
:1043200005F51064CF07A1464FF0904B4FF67F3C48
:104330004FF0006E0FD5D9F8000000284EBFC9F825
:1043400000E00020C9F800000020C9F81000C9F8FA
:1043500008C001202034490810D10A99002005F531
:104360003069CC07C8463DD5D8F8000000284EBFBC
:10437000C8F800E00020C8F800002BE02768002FF4
:1043800006D5002814BFC4F800B0C9F800E001E069
:10439000002727600027276104F12008C4F808C01F
:1043A000401CD8F80070002F06D5002814BFC8F8AC
:1043B00000B0C9F800E002E00027C8F8007000274C
:1043C000401CC8F81070491EC8F808C004F1400429
:1043D000D4D1C2E70020C8F81000C8F808C00120F6
:1043E00009F1200949082CD0D9F80040002C06D545
:1043F000002814BFC9F800B0C8F800E002E00024AB
:10440000C9F800400027C9F8107009F1200AC9F85E
:1044100008C0401CDAF80040002C07D5002814BF63
:10442000CAF800B0C8F800E002E000BFCAF80070A7
:10443000401CCAF81070491ECAF808C009F14009AA
:10444000D2D1186920F4807018610021A9616FF041
:10445000804068610D9818B9A86940F01000A86103
:10446000A969DFF874060143A961109818B1A86919
:1044700040F00800A861012A05D1A86940F08040F9
:1044800040F00400A861304601B0BDE8F00F5DF8CF
:1044900010FB81B000228901009241F020010161EE
:1044A000DFF8E415009A521C8A42009205D2026994
:1044B0009306F7D4002001B07047032001B0704785
:1044C00081B00021009110220261DFF8BC15009A32
:1044D000521C8A42009205D20269D306F7D400200A
:1044E00001B07047032001B0704700F5006080689C
:1044F00010F0060006D0022818BF062801D10220BD
:1045000070470F20704730B401250B781C4603F02C
:104510000F0305FA03F34D7800EB4412012D00F56B
:10452000006012D1C5699BB22B4302F51062C361D2
:10453000106803041FD410688B68C978C3F30A039A
:1045400043EA814343EA84530FE0C46944EA0344E5
:1045500002F53062C461106803040CD410688B68E3
:10456000C978C3F30A0343EA814343F0805343F419
:10457000004318431060002030BC704730B44B78C3
:104580000A78012B00EB421229D102F51062136860
:10459000002B07D5136843F000631360146844F0E0
:1045A0008044146000F500600123C46B0D7805F0B1
:1045B0000F0503FA05F5ADB2AC43C463C4690978CD
:1045C00001F00F018B409BB224EA0303C361116821
:1045D000DFF8080501401160002030BC704702F58B
:1045E00030621368002B07D5136843F00063136033
:1045F000146844F08044146000F500600123C46B2B
:104600000D7805F00F0503FA05F524EA0544C463A7
:10461000C469097801F00F018B4024EA0344C461A6
:104620001168DFF8BC0401401160002030BC704705
:10463000F0B403460878DFF8AC641C4604EB401580
:104640004878012874D1486905F510650028286963
:1046500009D106402E612E6946F400262E61286994
:10466000C00CC00422E0C00CC004286128690640C8
:104670002E6188682E694F69C7197F1EB7FBF0F05D
:10468000DFF8647407EAC04006432E6128694E696A
:10469000C6F3120630432861C878012807D128697B
:1046A00020F0C0402861286940F000502861012AAC
:1046B00004D10869002868D0686166E02E6846F079
:1046C00004462E60C87801280FD04869002871D0B0
:1046D00004F500640122606B097801F00F018A4043
:1046E000104360630020F0BC704704F50064A068CC
:1046F000C40504D4286840F00050286003E02C680A
:1047000044F080542C60002A0C78CD6852D1888AFD
:10471000C01C800800F04E8003EB043303F5805387
:1047200055F8041B1960401EFAD1F0BC00207047F8
:1047300005F530652869C00CC00428612869064069
:104740002E618B68486940B92869C3F3120303439B
:104750002B61286940F4002011E01818401EB0FBBE
:10476000F3F080B22B69DFF8806306EAC04633437A
:104770002B612B698E687043C0F312001843012A25
:10478000286102D1C86800B16861C87801280DD1DC
:1047900004F50064A068C10504D4286840F0005006
:1047A000286003E0296841F080512960286840F0C2
:1047B000044028600020F0BC704730B40B78DFF86C
:1047C000245300EB43144B78012B3ED14B6904F585
:1047D0001064002B236909D11D402561256945F42A
:1047E000002525612369DB0CDB0414E0DB0CDB0412
:1047F000236123691D4025618B684D69AB4288BFE9
:104800002B464B61236943F40023236123694D69DF
:10481000C5F312052B43012A236103D1086980B334
:1048200060612EE0236843F0044323604A6962B369
:1048300000F500600123426B097801F00F018B4005
:104840001A434263002030BC704704F5306420698D
:10485000C00CC004206123691D402561486908B16E
:1048600088684861206940F40020206120698B68D5
:10487000C3F312031843012A206102D1C86800B1B2
:104880006061206840F004402060002030BC704728
:1048900081B0DDF804C0BCF1000F0CD1DB1C9B081B
:1048A00000F0098000EB023000F5805051F8042B35
:1048B00002605B1EFAD1002001B0704730B493084B
:1048C00081B002F0030206D000F58054256841F85B
:1048D000045B5B1EFAD113000ED000F5805000235C
:1048E000006800900098521EDC005B1C95B2E0400E
:1048F000002D01F8010BF5D101B030BC084670471E
:104900000A78497800EB421001290CBF00F51060CD
:1049100000F530600168002904D41AB1016821F063
:1049200080410160026842F400120260002070477A
:104930000A7800EB42104A78012A0CBF00F510609B
:1049400000F53060026822F400120260C978032981
:1049500018BF022903D1016841F080510160002095
:104960007047000000F500600901026822F4FE6251
:10497000026001F4FE610368194301600020704782
:1049800000F5606100F500600A68920892000A6014
:10499000416821F0020141600020704700F560612C
:1049A00000F500600A68920892000A60416841F0D0
:1049B000020141600020704701464869896908404A
:1049C000704700F500618869C9690840000C7047AC
:1049D00000F500618869C969084080B270470246E5
:1049E00002EB411000F5306002F500628068516909
:1049F00008407047024602F5006302EB4112186955
:104A00005B6B01F00F0102F51062CB40DB01926895
:104A100003F08003184310407047406900F0010024
:104A2000704700F5106100F500600A68D20AD202F2
:104A30000A60416841F48071416000207047036C56
:104A4000DFF8A8C0634500F5306002D30368002B8F
:104A500016D4002303610129D0F810C04CF4002CB7
:104A6000C0F810C0036943F018030361036943F001
:104A7000C043036104D14261016841F080210160BB
:104A80000020704700000000410D0300BFFFBDFF84
:104A9000405327FF00350C00401E1BFF40420F0013
:104AA00000DC0BFF804F1200808CF9FE20D6130033
:104AB00060B6E5FE60E3160000D3CEFE40771B0033
:104AC000C05BB3FEC091210000CA91FE2075380082
:104AD000E05459FEE09C410000383C80007833EC03
:104AE0000078F3EFFFFF07E00000F81F0B30544F92
:104AF00030B581B0044600F011F814F1010F0546FD
:104B000002D005480178641800F008F8401BA04264
:104B1000FAD301B030BD00BF00000020014840685A
:104B2000704700BF000000202DE9F041074682B029
:104B3000D7F8BC42250000F05284164688463078EB
:104B400050B303284DD0122800F092801A2800F0AC
:104B50003B811B2800F008811E2800F026812328B5
:104B600000F04E81252800F08781282800F021825E
:104B70002A2800F0F6822F2800F0F6835A2800F049
:104B800031819E2800F0AC81A82800F07782AA2805
:104B900000F0568300F01CBC0834D4F8100240B179
:104BA00094F8151220230522384600F025FC00F069
:104BB00016BC94F85A02022809D0D7F8C0128A68A5
:104BC0004046904718B9606002B0BDE8F0813A23D2
:104BD00002224146384600F00FFC0520207000F00C
:104BE000FEBBD4F8180238B994F81D122023052210
:104BF000384600F001FCF2E32146122000220A743C
:104C0000491C401EFBD170200C212074E17594F8E2
:104C1000600294F8611288421DD004F5107204F508
:104C2000117112F83000A07494F8600211F830107D
:104C3000217704F2452094F8601210F83100607773
:104C400094F86002401C84F86002C0B2042804BFDB
:104C5000002084F8600204F10C0012210160317917
:104C6000122900F26F830160002002B0BDE8F081DC
:104C700004F10C01D1F80C0238B991F8111220237B
:104C80000522384600F0B8FBA9E37078C20755D575
:104C9000B07820BB0620086004F11003DFF8481745
:104CA000401E80B200280A5C1A5400F04B83401E5C
:104CB00080B200280A5C1A5400F04483401E80B27F
:104CC00000280A5C1A5400F03D83401E80B2002880
:104CD0000A5C1A54E4D1002002B0BDE8F0818028BB
:104CE00024D10820086004F11003DFF80017401EEB
:104CF00080B200280A5C1A5400F02483401E80B25F
:104D000000280A5C1A5400F01D83401E80B200285F
:104D10000A5C1A5400F01683401E80B200280A5C18
:104D20001A54E4D1002002B0BDE8F08191F81112CC
:104D300024230522384600F05FFB50E3D7F8C00279
:104D4000C169307908EBC80201EB82010A79521D72
:104D500093B2834228BF024692B2204600F009FC7B
:104D6000002002B0BDE8F08104F10C00317990F828
:104D7000562201F00301012A08BF022906D124238B
:104D800005224146384600F037FB28E3012903D0CD
:104D9000022902D0032902D1002180F856120022F4
:104DA0000260002002B0BDE8F08131794A1E9241D4
:104DB00004F10C00D243D20F002180F8562201608A
:104DC000002002B0BDE8F0813079DFF82416172208
:104DD0001728D8BF0246204600F0CBFB002002B0C7
:104DE000BDE8F081307ADFF80C161B221C28B8BF12
:104DF0000246204600F0BDFB002002B0BDE8F08175
:104E0000D7F8C0325D686A4601A94046A84760BB32
:104E100094F86202022828D021460C2000220A744D
:104E2000491C401EFBD10820E07402220199491E52
:104E3000090E21750198401E000C60750198401EF6
:104E4000000AA07501982276411EE1750020607667
:104E5000BDF80010090AA1760C21BDF80000E0762B
:104E6000E160002002B0BDE8F0813A230222414611
:104E7000384600F0C1FAB2E2D7F8C0325D6804F5F6
:104E8000197204F51A714046A8470028EDD104F1C3
:104E90000C0090F856120229E7D0D0F85C12491E97
:104EA000090E01710023D0F85C120372491E090C2F
:104EB00041714372D0F85C12491E090A8171D0F821
:104EC0005C124A1EC271B0F85822B0F85812C17272
:104ED000120A827208220260002002B0BDE8F0814E
:104EE000D7F8C0325D6804F5197204F51A714046AE
:104EF000A8470028B9D104F10C0292F85602022802
:104F0000B3D0F07AB17A337B000440EA0160717B60
:104F100040EA0320084310600021F0B104F11003BF
:104F2000CDB200205855491C1568CFB2AF4214D2FB
:104F3000CDB2491C5855CFB21568AF420DD2CDB293
:104F4000491C5855CFB21568AF4206D2CDB2491CA4
:104F50005855CFB210688742E0D3D2F85C02401EA9
:104F6000000E10720023D2F85C021373401E000C76
:104F700050725373D2F85C02401E000A9072D2F84D
:104F80005C02411ED172B2F85812B2F85802D073C6
:104F9000090A9173F37AB17A707B1B0443EA0163C7
:104FA000317B43EA012303431360002002B0BDE8D4
:104FB000F08114F8080F002840F0C18094F8140222
:104FC000010653D594F85A0202283FF44EAFD7F8A1
:104FD000C0128A684046904700287FF446AFF278B6
:104FE000B0783179120442EA0062707942EA012213
:104FF0000243C4F86422F179337A43EA0123C4F806
:105000006832D7F8BC12080000F0E981D1F86802D4
:105010009A18904220D201F5107291F8610205238E
:1050200002F8303001F5117291F86102212302F883
:10503000303001F2452291F86102002302F830304D
:1050400091F86102401C81F86102C0B2042840F06E
:10505000C68181F86132C2E1B4F85C02D4F8101262
:105060004343994202D10221217068E094F815125D
:1050700020230522384600F0BFF9B0E114F8080FEC
:1050800000285CD194F81402010662D594F85A0203
:1050900002283FF4EAAED7F8C0128A68404690472B
:1050A00000287FF4E2AEF178B0783279090441EA61
:1050B0000061707941EA02210143C4F86412F37976
:1050C000B279707A1B0443EA0263327A43EA02231C
:1050D0000343C4F86832D7F8BC22100000F07F8187
:1050E000D2F868025918884220D202F5107192F85D
:1050F0006102052301F8303002F5117192F8610266
:10510000212301F8303002F2452192F86102002398
:1051100001F8303092F86102401C82F86102C0B29E
:10512000042840F05C8182F8613258E1B4F85C02F6
:10513000D4F81012434399420BD1022121704FF44D
:10514000007060604146384600F077F902B0BDE873
:10515000F08194F8151220230522384600F04CF90E
:105160003DE104F108052878002840F0F780D5F8E3
:10517000100200285CD095F81402010658D4D7F824
:10518000C02291684046884700287FF46EAED7F869
:10519000C012CA684046904730B1272302224146D8
:1051A000384600F029F91AE1F278B0783179120422
:1051B00042EA0062707942EA01220243C5F86422A1
:1051C000F179337A43EA0123C5F86832D7F8BC1283
:1051D000080000F00481D1F868029A18904220D2A9
:1051E00001F5107291F86102052302F8303001F5E3
:1051F000117291F86102212302F8303001F2452248
:1052000091F86102002302F8303091F86102401CED
:1052100081F86102C0B2042840F0E18081F8613277
:10522000DDE0B5F85C02D5F81012434399427CD01A
:1052300095F8151220230522384600F0DDF8CEE05F
:1052400004F108052878002840F08880D5F810027D
:1052500000287BD095F81402010677D4D7F8C02235
:1052600091684046884740B13A2302224146384679
:1052700000F0C2F805202870B1E0D7F8C012CA6863
:105280004046904740B1272302224146384600F06D
:10529000B3F805202870A2E0F178B07832790904DB
:1052A00041EA0061707941EA02210143C5F86412C4
:1052B000F379B279707A1B0443EA0263327A43EAE3
:1052C00002230343C5F86832D7F8BC22100000F06F
:1052D0008680D2F86802591888421FD202F51071F0
:1052E00092F86102052301F8303002F5117192F84D
:1052F0006102212301F8303002F2452192F8610267
:10530000002301F8303092F86102401C82F86102FB
:10531000C0B2042863D182F8613260E0B5F85C0263
:10532000D5F810124343994210D1B3F5007F28BF3E
:105330004FF400730120287004F110020121384657
:1053400000F08EFA002002B0BDE8F08195F8151249
:1053500020230522384600F04FF840E0384600F0A0
:10536000B6F802B0BDE8F08171788A073FF507AD65
:1053700004F10C01D1F86032D1F86402D4F868224B
:10538000C3189A421FD204F5107194F861020522E5
:1053900001F8302004F5117194F86102212201F81E
:1053A000302004F2452194F86102002201F83020F7
:1053B00094F86102401C84F86102C0B204280ED146
:1053C00084F861220BE00020086002B0BDE8F081A3
:1053D00020230522384600F00FF8022060724FF0BB
:1053E000FF3002B0BDE8F081040100200C01002074
:1053F000140100202C010020D0F8BC02E0B190F88C
:10540000611200EBC10C8CF8402290F8611200EBA5
:10541000C10282F84432002390F8611200EBC1020D
:1054200082F8453290F86112491C80F86112C9B2C5
:10543000042908BF80F8613270472DE9F041064623
:105440000F46D6F8BC42B4F86402D4F87052454313
:10545000CCB1D6F8C0C2D4F86C22DCF81080B5F517
:10546000007F28BF4FF40075B5FBF0F39BB204F149
:1054700010013846C047002809D5112304223946B7
:105480003046FFF7B9FF4FF0FF30BDE8F0812B4603
:1054900004F110028121304600F0D3F9B4F864021F
:1054A000D4F86C12D4F87022B5FBF0F04118C4F8AF
:1054B0006C12101AD4F83812C4F870024D1BC4F8DC
:1054C000385208B9032020720020BDE8F0812DE990
:1054D000F04105460F46D5F8BC42B4F86402D4F852
:1054E00070624643CCB1D5F8C0C2D4F86C22DCF867
:1054F0001480B6F5007F28BF4FF40076B6FBF0F3BA
:105500009BB204F110013846C047002809D5032397
:10551000042239462846FFF76FFF4FF0FF30BDE801
:10552000F081B4F86402D4F86C12D4F87022B6FB9F
:10553000F0F35918C4F86C12D31AD4F83812C4F81E
:1055400070328E1BC4F8386223B90021284600F05F
:10555000CEFA0BE04343B3F5007F28BF4FF400734E
:1055600004F110020121284600F07AF90020BDE87C
:10557000F081030002D14FF0FF307047DA60DAB1FA
:10558000501E80B203F1100C0A5C0CF8002098B198
:10559000401E80B20A5C0CF8002068B1401E80B248
:1055A00000280A5C0CF8002006D0421E92B2002AA5
:1055B000885C0CF80200E3D10020704710B586B07B
:1055C00001A90022002300241CC10CC10068B0F115
:1055D000A04F2ED1AD4C00920222206840F0010075
:1055E0002060216801F0010100914FF4C051009842
:1055F00002920393019103220A230492059301A9C5
:10560000A34800F0F5FA606840F080006060002177
:1056100000910022606940F480406061606900F49C
:10562000804000900098432000F0E7FB432000F00A
:1056300011FC06B010BD00F57171D0F8040400F043
:1056400071BCC1EBC10300EB8302D0F80404D2F8B3
:10565000082200F099BCC1EBC10300EB8302D0F833
:105660000404926C00F0CBBCD0F8040400F065BDDB
:1056700030B5044681B0E068012508B9002503E093
:10568000022818BF00F05AFFD4F80404294600F09D
:105690003EFDD4F8040401B0BDE8304000F005BD83
:1056A00010B50446D4F8040400F034FD206800F579
:1056B0006060016841F001010160206A20B1754815
:1056C000016841F00601016010BDD0F8040400F04B
:1056D0002ABDD0F8040400F054BDD0F8040400F052
:1056E0003EBDD0F8040400F05EBDD0F8040400F024
:1056F0005CBD10B5017839BB674CC4F80404C0F830
:10570000C4424FF0A040206004210020022220610A
:10571000E06120626062E06220636160E260A26139
:10572000204600F049FF08B100F008FF8021204624
:1057300001F075FC40220021204601F029FC802266
:105740000121204601F024FC002010BD00B581B0ED
:10575000D0F8C40201F006F80146002019B1022970
:105760000CBF0120032001B000BD10B51C4613463C
:10577000D0F8C402224601F0DDFA0146002021B132
:10578000022901D1012010BD032010BD00B581B058
:10579000D0F8C40201F0FDFA0146002019B1022937
:1057A0000CBF0120032001B000BD00B581B0D0F8CE
:1057B000C40201F0D1FB0146002019B102290CBF3F
:1057C0000120032001B000BD00B581B0D0F8C402B3
:1057D00001F05BFB0146002019B102290CBF01203A
:1057E000032001B000BD00B581B0D0F8C40201F0C3
:1057F00088FB0146002019B102290CBF01200320BB
:1058000001B000BDD0F8C40201F07F02C2EBC203B8
:10581000090600EB830002D590F83E00704790F82F
:10582000FE01704700B581B0D0F8C40201F06EFAF5
:105830000146002019B102290CBF0120032001B04C
:1058400000BD00B581B0D0F8C40201F0F7FA0146FE
:10585000002019B102290CBF0120032001B000BDB6
:1058600000B581B0D0F8C40201F0B7FA01460020BB
:1058700019B102290CBF0120032001B000BDD0F8EE
:10588000C40201F0D2BA0548704700003038024027
:105890000000024010ED00E08C0B0020641200209C
:1058A0007047000030B5054681B0D5F8BC42F4B170
:1058B00000202072607284F8610284F8600284F82B
:1058C0006202D5F8C0120A68904701212846FFF706
:1058D0006CFF81212846FFF768FF04F50472284613
:1058E00001B0BDE830401F230121FFF7B9BF01B06F
:1058F00030BD30B5054681B0D5F8BC42ACB1002012
:1059000020720122627281212846FFF76CFF01217B
:105910002846FFF768FF04F50472284601B0BDE889
:1059200030401F230121FFF79BBF01B030BDD0F8ED
:10593000BC0208B100210172704730B5054681B044
:10594000D5F8BC42200036D004F108010B789B1E2C
:1059500004D05B1E012B16D901B030BD94F81D1286
:1059600004F21F222846FFF7DFF8002823D5D5F8D8
:10597000BC4204B39C48C4F830020121002084F8E2
:105980003C12207206E09848C1F82802002281F8F3
:1059900034220A700D2304F50C7281212846FFF78A
:1059A00050FF04F50472284601B0BDE830401F23C3
:1059B0000121FFF755BF01B030BD70B50546D5F8E0
:1059C000BC62300000F0928006F10804217811B129
:1059D000012967D070BDD4F80C02D4F81022C4F8A5
:1059E0002C02C4F8302201212846FFF748FF1F2867
:1059F00002BFD4F808027D49884246D194F81512B6
:105A0000022942D294F8160200283ED011283CD236
:105A100006F21F222846FFF787F80028207802D5D3
:105A200005283BD147E002281CBF012803285DD090
:105A30006068D5F8BC42E0B104F1080204F1080145
:105A4000D2F81032834288BF0346002C4ED0D1F8E2
:105A50003022101A04220A70C1F8300206F1100236
:105A6000002081F8340281212846BDE87040FFF70C
:105A7000E8BE002C3AD004F108005B49C0F82812B7
:105A8000002280F83422027020E094F815122023BE
:105A900005222846FFF7B0FC022060702846BDE8CA
:105AA000704044E096F81D1206F21F222846FFF7C8
:105AB0003BF800281AD5D5F8BC42BCB14A48C4F816
:105AC0003002012184F83C12002020720D2304F5DD
:105AD0000C7281212846FFF7B4FE04F504722846B3
