:020000040800F2
:10000000003900206DA20008279D0008299D0008E6
:100010002B9D00082D9D00082F9D0008000000006A
:10002000000000000000000000000000319D0008FA
:10003000339D000800000000359D0008379D000832
:10004000E1A20008E5A20008E9A20008EDA200086C
:10005000F1A20008F5A20008F9A20008FDA200081C
:1000600001A3000805A3000809A300080DA30008C8
:1000700011A3000815A3000819A300081DA3000878
:1000800021A3000825A3000829A300082DA3000828
:1000900031A3000835A3000839A300083DA30008D8
:1000A00041A3000845A3000849A300084DA3000888
:1000B00051A3000855A3000859A300085DA3000838
:1000C00061A3000865A3000869A300086DA30008E8
:1000D00071A3000875A3000879A300087DA3000898
:1000E00081A3000885A3000889A300088DA3000848
:1000F00091A3000895A3000899A300089DA30008F8
:10010000A1A30008A5A30008A9A30008ADA30008A7
:10011000B1A30008B5A30008B9A30008BDA3000857
:100120003F9D0008C1A30008C5A30008499D000821
:10013000C9A300080000000000000000CDA30008D3
:10014000D1A30008D5A30008D9A30008539D000837
:10015000DDA30008E1A30008E5A30008E9A3000867
:10016000EDA30008F1A30008F5A30008F9A3000817
:10017000FDA3000801A4000800000000000000002A
:1001800005A4000809A400084178007850EA01207D
:1001900080B27047C178827852EA0122417851EAF0
:1001A0000221007850EA012070470170401C89B29A
:1001B000090A0170401C70470170401C090A017057
:1001C000401C090A0170401C090A0170401C70475C
:1001D000002A06D00B780370491C401C521E002ACE
:1001E000F8D170470170401C521E002AFAD17047A6
:1001F00010B4030000201C780878201A491C5B1CEE
:10020000521E002A01D00028F5D010BC704700E033
:10021000401C0278002A02D002788A42F8D1007885
:10022000704770B4020000231C0001E00123641C2D
:10023000022C16D2DFF88C5A200128580028F5D05D
:10024000200128581668B042F1D1200128444068A6
:100250009668B042EBD12001284480685569A842D5
:10026000E5D1022C08D1002B01D1022901D10020B7
:1002700000E01220C0B20DE0002907D1DFF8440AE7
:10028000210108448089B0F5807F01D1102000E071
:100290000020C0B270BC7047002100E0491C022958
:1002A00005D2DFF8200A0A0180580028F6D1022979
:1002B00001D1002000E00120704730B4020000238B
:1002C00000E05B1C022B12D2DFF8F8091C01045974
:1002D0001568AC42F5D11C01044464689568AC42D1
:1002E000EFD11C01204480685469A042E9D1022B5F
:1002F0001FD1002300E05B1C022B05D2DFF8C409EC
:100300001C0100590028F6D1022B01D100202DE05C
:10031000DFF8B00914681D01445194681D010544BB
:100320006C6052691C010444A26000221C0120443C
:100330008281002908D0DFF88C091A0110448089D5
:10034000002801D0002011E0002902D04FF4807075
:1003500005E0DFF87009190108448089401CDFF8C6
:1003600064191A01114488815B1C180030BC704765
:10037000401E02281AD2DFF84C39010119448A893B
:10038000110089B2B1F5807F00D10022110089B23D
:10039000002900D0521E010119448A8192B2002A1C
:1003A00002D1002100011950002000E00220C0B25B
:1003B000704710B4002109E0DFF808290B01D35879
:1003C000834202D100230C011351491C0229F3D3AB
:1003D00010BC7047F8B505000024E878002820D04C
:1003E000EE6A0123320015F13001687801F083FBD9
:1003F000002801D0012414E00020E870286A301A97
:10040000A96988420DD2AF7809E0A869861901234D
:10041000320015F13001687801F06DFB7F1E022F6C
:10042000F3D22000C0B2F2BD70B504000D0000266A
:10043000E06A854214D02000FFF7CCFF06003000B0
:10044000C0B200280CD101232A0014F130016078D9
:1004500001F042FB002802D05FF0FF350126E56283
:100460003000C0B270BD38B504002000FFF7B2FF05
:1004700005002800C0B200283CD12078032831D1E3
:10048000207901282ED14FF40072002114F13000A0
:10049000FFF7A8FE4AF6552104F22E20FFF785FE4D
:1004A000DFF87C1914F13000FFF786FEDFF87419CD
:1004B00014F50570FFF780FE216914F50670FFF74B
:1004C0007BFEE16814F50770FFF776FEE069401CDB
:1004D000E0620123E26A14F13001607801F00BFB65
:1004E0000020207100220021607801F013FB002819
:1004F00000D001252800C0B232BD891E4269921E7B
:10050000914201D3002004E04289806A02FB01018C
:10051000080070472DE9F0410C000568022C02D359
:100520006869844202D35FF0010859E05FF0FF3848
:100530002878012804D051D303283CD02AD34DE099
:10054000270017EB5707296A11EB57212800FFF7FF
:100550006BFF002844D1F805C00D284490F83060A6
:100560007F1C296A11EB57212800FFF75DFF002847
:1005700036D1FF05FF0D05EB070090F8300056EA75
:100580000026E00702D53609B04602E03605360DF2
:10059000B04625E0296A11EB14212800FFF744FF3B
:1005A00000281DD16000C005C00D28443030FFF781
:1005B000EBFD804614E0296A11EBD4112800FFF707
:1005C00033FF00280CD1A000C005C00D28443030F6
:1005D000FFF7E0FD804628F0704801E05FF0010879
:1005E0004046BDE8F0812DE9F04107000D001600FE
:1005F0000224022DC0F084807869854280F08080DA
:100600003878012804D07BD303285AD042D377E02E
:10061000A84618EB5808396A11EB58213800FFF743
:1006200003FF04002000C0B2002869D15FEAC8506F
:10063000C00D3844303018F10108E90705D50178BC
:1006400011F00F0151EA061100E0310001700120A4
:10065000F870396A11EB58213800FFF7E5FE040005
:100660002000C0B200284BD15FEAC8585FEAD858D2
:1006700007EB08003030E90701D5360906E00178BC
:1006800011F0F001360A16F00F060E430670012035
:10069000F87035E0396A11EB15213800FFF7C4FE18
:1006A00004002000C0B200282AD1310089B26800BD
:1006B000C005C00D38443030FFF777FD0120F870D9
:1006C0001EE0396A11EBD5113800FFF7ADFE0400CA
:1006D0002000C0B2002813D1A800C005C00D3844C6
:1006E0003030FFF757FD000F60F31F763100A80090
:1006F000C005C00D38443030FFF75EFD0120F870B2
:100700002000C0B2BDE8F081F8B505000F0011006F
:1007100000202E68022F02D37069874201D3022085
:1007200032E0002928D05FF0FF323000FFF75BFF96
:100730000100C9B200291FD0C0B225E0012C24D08D
:1007400014F1010F23D0002239003000FFF74BFFD6
:100750000100C9B200291CD130697169891E884223
:1007600006D23069401C3061307950F001003071A0
:1007700027007069874206D239002800FFF7CAFEB9
:100780000400002CDAD10020F2BD0220FCE7012099
:10079000FAE7C0B2F8E72DE9F04107000C003E6827
:1007A000002C07D1F568002D02D07069854210D366
:1007B00001250EE021003800FFF7ACFE022801D22F
:1007C00001204FE010F1010F4CD07169884249D3EC
:1007D0002500A84618F101087069804503D35FF031
:1007E000020845450ED341463800FFF793FE002826
:1007F0000AD001282CD010F1010F29D0A845E9D149
:1008000000202FE000202DE05FF0FF324146300055
:10081000FFF7E9FE0100C9B2002906D1002C04D07F
:10082000424621003000FFF7DEFE0100C9B2002978
:100830000FD1C6F80C807069801E3169884202D3DE
:100840003069401E3061307950F00100307108E0AD
:1008500008E0C0B2012802D15FF0FF3801E05FF08C
:1008600001084046BDE8F0810368C06A021D490ADC
:100870005889B1FBF0F003E0884207D3401A121DFB
:100880001168121D0029F7D1002001E01168081835
:1008900070472DE9F04105000E002F68B6F5001FE6
:1008A00002D216F01F0F01D0022045E06E61AC6845
:1008B000002C03D13878032800DB7C6A002C09D196
:1008C000300040093989884201D3022034E0786A37
:1008D000E86120E0B7F80A804FF4007000FB08F8E8
:1008E00006E0022C10D3786984420DD2B6EB0806DC
:1008F00046450BD321002800FFF70CFE040014F13D
:10090000010FEED1012017E0022015E02100380090
:10091000FFF7F3FDE861AC61E869002801D102202E
:100920000AE0E86910EB5620E861F605F60D07EBE2
:100930000600303028620020BDE8F0812DE9F0414A
:1009400006000C00D6F8008077692037F06900288F
:1009500002D0B7F5001F01D304207EE0F80574D162
:10096000F069401CF061B069002809D138004009E5
:10097000B8F80810884268D30020F06104206CE0C9
:10098000B8F80A00401E10EA572F5ED1B169300056
:10099000FFF7C0FD0500022D01D202205DE015F138
:1009A000010F01D1012058E0D8F81400854246D348
:1009B000002C03D10020F06104204EE0B16930002A
:1009C000FFF7E9FE0500002D01D1072045E0012DCC
:1009D00001D1022041E015F1010F01D101203CE0DD
:1009E0004046FFF7F7FC002801D0012035E04FF426
:1009F0000072002118F13000FFF7F4FB00242900F9
:100A00004046FFF77AFDC8F82C0005E0641CD8F8D2
:100A10002C00401CC8F82C00B8F80A00844209D207
:100A2000012088F803004046FFF7D4FC0028EDD0F1
:100A3000012012E0D8F82C00041BC8F82C40B56146
:100A400029004046FFF759FDF0617761FF05FF0D72
:100A500008EB0700303030620020BDE8F081F8B5C7
:100A600004000D00266800212000FFF712FF01009E
:100A7000C9B200291ED10027E1693000FFF7D4FC7C
:100A80000100C9B200290BD1216A0978E52903D0F8
:100A9000216A0978002904D17F1CAF4202D109E004
:100AA00008E0002701212000FFF748FF0100C9B23C
:100AB0000029E1D00100C9B2042900D10720C0B249
:100AC000F2BD70B504000D0015F11A00FFF75CFBD4
:100AD00006002078032805D115F11400FFF754FB18
:100AE00056EA0046300070BD70B504000D001600D7
:100AF000310089B215F11A00FFF757FB207803285F
:100B000006D1360C310089B215F11400FFF74DFB08
:100B100070BD70B50400256800212000FFF7B9FE04
:100B20000100C9B2002920D0C0B22CE0206A0078B0
:100B3000C0B2002823D0206AC07A10F03F00A07114
:100B4000206AC07A000707D40B2214F12401206A1E
:100B5000FFF74EFB002814D000212000FFF7EEFE27
:100B600006003000C0B200280BD1E1692800FFF771
:100B70005BFC06003000C0B20028D7D001E004269C
:100B8000FFE73000C0B270BD70B5040026680121D7
:100B90002000FFF764FF05002800C0B2002815D12F
:100BA000E1693000FFF740FC05002800C0B20028D2
:100BB0000CD120220021206AFFF714FB0B2214F134
:100BC0002401206AFFF704FB0120F0702800C0B266
:100BD00070BD2DE9F0470D002E6810F124070B229F
:100BE00020213800FFF7FEFA0024A1465FF0080834
:100BF00002E008245FF00B0816F809A019F10109BA
:100C00005046C0B2212812DB5046C0B22F2803D074
:100C10005046C0B25C2812D116F809002F2803D024
:100C200016F809005C2809D119F10109F4E706EB6F
:100C300009002860002C32D106203FE0F7E750463B
:100C4000C0B22E2801D0444509D3B8F10B0F04D00F
:100C50005FFA8AFABAF12E0FCBD006202EE050466A
:100C6000C0B2802806DBDFF844055FFA8AFA5044F8
:100C700010F880AC5146C9B2DFF83405FFF7C7FA67
:100C800000280AD15046C0B261381A2801D2BAF100
:100C9000200A07F804A0641CAEE706200EE03878AE
:100CA000E52801D1052038705FFA8AFABAF1210FE0
:100CB00001DA042000E00020F8720020BDE8F0878F
:100CC000000000009818002073B5040025002E686D
:100CD00002E00198401C0190019800782F28F8D07C
:100CE000019800785C28F4D00020A8600198007872
:100CF00020281FD2802084F82F0000212000FFF739
:100D0000C8FD2AE02000FFF704FF94F82F2001001F
:100D1000C9B2002917D151071DD4A879C0061BD527
:100D20006069C005C00D304410F130013000FFF79C
:100D3000C8FEA86001A92000FFF74BFF0100C9B25F
:100D40000029DFD009E00100C9B2042902D151070E
:100D500000D4052001E000E00520C0B276BD10B44B
:100D600002005FF0FF30116800291AD0146800E01B
:100D7000641C2178212902D321783A29F8D12178DD
:100D80003A290DD11368197830395B1C0A2906D22B
:100D9000A34204D1002902D10800611C116000E0C7
:100DA000002010BC704710B504000020E0705FF018
:100DB000FF30E0622000FFF737FB002801D004205D
:100DC0002CE004F22E20FFF7DFF94AF65521884285
:100DD00001D0032022E094F83000E92807D094F8ED
:100DE0003000EB2819D194F83200902815D114F175
:100DF0006600FFF7CFF920F07F40DFF8B813884294
:100E000001D100200AE014F18200FFF7C3F9DFF8F6
:100E1000A813884201D1002000E0022010BD00008C
:100E20005252614172724161F8B584B00F001400F2
:100E300000213960FFF793FF0600002E01D50B203B
:100E40005EE1DFF8780350F82650002D01D10C2028
:100E500056E13D6014F0FE04287800280DD0687833
:100E600000F012FEC10708D4E4B2002C03D0400702
:100E700001D50A2044E1002042E1002028706E7074
:100E8000687800F010FEC10701D5032038E1E4B214
:100E9000002C03D0400701D50A2031E100242100B5
:100EA0002800FFF780FF0100C9B202292AD10024DF
:100EB00010E000200AE02001284410F5F7710879BD
:100EC0000028F6D011F10800FFF764F9694641F8EF
:100ED0002400641C042CEED30026002E00D0761EC5
:100EE000684650F82640002C04D021002800FFF767
:100EF0005AFF00E003200100C9B2022902DB761C80
:100F0000042EEDD30100C9B2042901D10120F7E07C
:100F1000C0B2022801DB0D20F2E015F13B00FFF723
:100F200033F9B0F5007F01D00D20E9E015F146005E
:100F3000FFF72AF90700002F04D115F15400FFF73D
:100F400029F90700AF6195F84000A870A87801283A
:100F500004D0A878022801D00D20D1E0A87847431A
:100F600095F83D0068816889002804D068896989FE
:100F7000491E084201D00D20C2E015F14100FFF7E3
:100F800003F92881287A10F00F0F01D00D20B7E067
:100F900015F14300FFF7F8F80600002E04D115F113
:100FA0005000FFF7F7F8060015F13E00FFF7ECF8E8
:100FB0000100080080B2002801D10D20A0E017FA3E
:100FC00081F2288912EB1012964201D20D2097E08F
:100FD000B61A6889B6FBF0F0002801D10D208FE029
:100FE00003264FF6F673984200D2022640F6F673B7
:100FF000984200D20126801C6861EC6114FA81F0ED
:1010000028621219AA623000C0B2032814D115F167
:101010005A00FFF7B9F8002801D00D2070E02889A8
:10102000002801D00D206BE015F15C00FFF7B2F84D
:1010300068626869800016E02889002801D10D20C7
:101040005EE0286A3F186F623000C0B2022802D109
:101050006869400007E0696903204143287D10F07A
:10106000010010EB5100A96900F2FF10B1EB502F05
:1010700001D20D2044E05FF0FF3028612869E8606C
:10108000802028713000C0B203282ED115F16000F5
:10109000FFF77AF8012828D1641C21002800FFF707
:1010A000C3F9002821D10020287105F22E20FFF776
:1010B0006BF84AF65521884217D115F13000FFF739
:1010C00069F83F49884210D115F50570FFF762F8BD
:1010D0003C49884209D115F50670FFF75BF8286195
:1010E00015F50770FFF756F8E8602E70364801884E
:1010F000491C01800088E8802800FFF75AF9002089
:1011000005B0F0BD70B504000D000926002C12D00A
:10111000206800280FD02068007800280BD0A08815
:101120002168C988884206D12068407800F0ACFC6C
:10113000C00700D400263000C0B2002801D12068CA
:1011400000E0002028603000C0B270BDF3B581B06F
:101150001500029800906846FFF701FE0600002E79
:1011600001D50B2020E0154F57F82640002C04D065
:101170002000FFF71EF9002020700198002802D0FF
:10118000002001990870019847F82600019800286E
:1011900002D0EDB2012D01D0002005E0002201A90E
:1011A00002A8FFF741FEC0B2FEBD0000A49D0008EA
:1011B0002CA200084641540046415433D018002068
:1011C0005252614172724161F41800202DE9F241DE
:1011D0008DB004001700002C01D109201FE117F089
:1011E0003F073A00D2B269460DA8FFF71DFE060080
:1011F0003000C0B2002840F00A81009801900D999B
:1012000001A8FFF761FD06003000C0B200280FD131
:101210009DF83300000601D5062609E017F0FE0F01
:1012200001D0012100E0002101A8FEF7FAFF06002D
:1012300017F01C0F5ED03000C0B2002810D0300074
:10124000C0B2042809D1FFF727F8002804D001A86C
:10125000FFF79AFC060000E0122657F0080709E0A5
:101260009DF80A0010F0110F01D0072602E0780760
:1012700000D508263000C0B200284CD138074AD526
:1012800000F068FC0500290009980E30FEF794FF75
:10129000290009981630FEF78FFF20200999C8729F
:1012A00009990098FFF70DFC0500002209990098A4
:1012B000FFF71AFC002109981C30FEF77DFF012082
:1012C0000099C870002D26D00098D0F82C800022FC
:1012D000290001A8FFF718FA06003000C0B2002864
:1012E00019D141460098FFF79FF806006D1E00983F
:1012F000C56010E03000C0B200280CD19DF80A0093
:10130000C00601D5042606E0B80704D59DF80A00FA
:10131000C00700D507263000C0B2002816D1380714
:1013200001D557F040070098C06A60620998A06232
:1013300017F0FE0F01D0012100E0002101A8FEF707
:10134000BCFF20612069002800D102263000C0B215
:1013500000285CD109990098FFF7B3FBA0600998B9
:101360001C30FEF717FFE0600020E062009820606C
:101370000098C088A080277500206075002020623A
:101380000020A0614FF40072002114F13000FEF73C
:1013900029FFB8063BD5E068002838D0E068A06196
:1013A000009847894FF400704743A168E5680BE057
:1013B0002000FFF7AFF80100022900D2022611F148
:1013C000010F00D10126ED1B3000C0B2002801D171
:1013D000AF42EDD3E1613000C0B2002817D1E8057B
:1013E00015D00098FFF789F80100002801D10226E6
:1013F0000DE011EB552121620123226A14F1300125
:101400000098407800F068FB002800D001263000EA
:10141000C0B2002801D0002020603000C0B20EB061
:10142000BDE8F0812DE9FC470600884614001F0046
:101430000020386069463000FFF764FE0100C9B241
:10144000002904D1717D0800C9B2002901D0C0B2C1
:10145000C8E0307DC00701D40720C3E0F168B0695F
:10146000081AA0424FD204004DE010F1010F6ED0D7
:10147000F061F1690098FFF740F88246BAF1000F79
:1014800069D015EB0A0AA1465FEA5929B9F1000FA4
:1014900069D00098408919EB0501884204D2009870
:1014A0004089A946B0EB09094B465246414600988F
:1014B000407800F011FB002851D1307D000613D593
:1014C000306AB0EB0A0048450ED24FF4007216F1B4
:1014D0003001306AB0EB0A0A4FF4007000FB0AFAE0
:1014E00008EB0A00FEF774FE4FF4007000FB09F9E8
:1014F000C844B06919EB0000B061386819EB00000E
:101500003860B4EB0904002C6BD0B069C0054AD137
:10151000B06900994D896D1E15EA5025002DA8D19E
:10152000B069002801D1B0680BE0F06A002804D04F
:10153000B1693000FFF798F903E0F1693000FEF778
:10154000E9FF022891D20220707502204AE00120B2
:101550007075012046E002207075022042E00120F3
:10156000707501203EE0306A50451AD0307D00068B
:101570000DD50123326A16F130010098407800F051
:10158000BAFA002825D1307D10F07F003075012394
:10159000524616F130010098407800F09DFA00287C
:1015A0001BD1C6F820A0D6F818905FEAC9595FEAA7
:1015B000D959D9F500794C4500D2A1464A46B069BF
:1015C000C005C00D304410F130014046FEF700FE6A
:1015D0008EE701207075012004E001207075012064
:1015E00000E00020BDE8F6872DE9FC4706008846AC
:1015F00015001F000020386069463000FFF782FDAB
:101600000100C9B2002904D1717D0800C9B20029C6
:1016100001D0C0B2C3E0307D800701D40720BEE016
:10162000B0692818B169884231D25FF0FF30B569DE
:10163000451B2CE0F06823E0C6F820A0D6F81890EF
:101640005FEAC9595FEAD959D9F500794D4500D209
:10165000A9464A464146B069C005C00D3044303005
:10166000FEF7B6FD307D50F080003075C844B0699B
:1016700019EB0000B061F068B1698842DAD2B06954
:10168000F060386819EB00003860B5EB0905002DF3
:1016900000F08080B069C005D0D1B06900994C8954
:1016A000641E14EA5024002C22D1B069002807D10E
:1016B000B068002810D100213000FFF76CF80BE073
:1016C000F06A002804D0B1693000FFF7CDF803E0DC
:1016D000F1693000FFF75FF800285BD0012860D087
:1016E00010F1010F61D0F061B168002900D1B06044
:1016F000307D00060DD50123326A16F130010098C5
:10170000407800F0F8F9002853D1307D10F07F00C8
:101710003075F1690098FEF7F0FE8246BAF1000FCD
:101720004BD014EB0A0AA9465FEA5929B9F1000F18
:101730004BD00098408919EB0401884204D20098EC
:101740004089A146B0EB09094B46524641460098F4
:10175000407800F0D0F9002833D1306AB0EB0A00AD
:10176000484512D24FF40072306AB0EB0A0A4FF4C7
:10177000007000FB0AFA08EB0A0116F13000FEF7D0
:1017800027FD307D10F07F0030754FF4007000FBB6
:1017900009F96BE7307D50F0400030750020BDE85E
:1017A000F687022070750220F9E70120707501208C
:1017B000F5E7012070750120F1E702207075022025
:1017C000EDE7012070750120E9E7306A50453FF4EC
:1017D00033AFB069F1688842BFF42EAF012352469F
:1017E00016F130010098407800F076F900283FF4B7
:1017F00023AF012070750120D1E77CB50400694654
:101800002000FFF77FFC0100C9B2002943D1217DF0
:10181000490640D5207D00060FD50123226A14F128
:1018200030010098407800F066F9002801D00120CE
:1018300032E0207D10F07F00207500F08BF905006C
:10184000616A0098FEF7F0FD0100C9B2002922D1BB
:10185000A66AF07A50F02000F072A2683100206889
:10186000FFF742F9E16816F11C00FEF7A5FC29001C
:1018700016F11600FEF7A0FC002116F11200FEF78B
:1018800094FC01200099C8700098FEF7ECFD217DC2
:1018900011F0BF012175C0B276BD1CB50400200057
:1018A000FFF7ABFF0100C9B2002910D16946200043
:1018B000FFF728FC0100C9B2002908D12069FEF712
:1018C00057FD0100C9B2002901D100212160C0B239
:1018D00016BD2DE9F14787B00E00140000226946BD
:1018E00007A8FFF7A1FA07003800C0B200286ED1A0
:1018F0000098206000984069801E0099096988421C
:1019000003D300980069306061E05FF00008009840
:101910000078012819D1022400980190210001A823
:10192000FEF7F8FD10F1010F0BD001280BD00028B5
:1019300001D118F10108641C009840698442EDD37C
:101940003AE0012738E0022736E000984469009821
:10195000D0F8209000255FF0000A002D0FD14946F5
:101960000098FEF761FD070019F101093800C0B2C7
:10197000002813D1009810F1300A4FF40075009838
:10198000007802280BD15046FEF7FEFB002801D15B
:1019900018F101081AF1020AAD1E0AE00CE05046E7
:1019A000FEF7F8FB000101D118F101081AF1040A51
:1019B0002D1F641E002CD0D1C6F800800098C0F8FE
:1019C00010800098007950F00100009908713800EB
:1019D000C0B208B0BDE8F0877CB504000D00280057
:1019E000C0B20A2803D10D212000FFF7F5FF666879
:1019F000002E17D404EB06000573761C3D2E0DDB7C
:101A00006B46320014F10C012068FFF7EDFD0098E1
:101A1000B04201D1002601E05FF0FF366660A068A9
:101A2000401CA06073BD1CB50400606800280ED483
:101A30006B46626814F10C012068FFF7D5FD0028A1
:101A400005D160680099884201D1A06801E05FF08B
:101A5000FF3016BD01600021416041688160704720
:101A600018B593B004006846FFF7F4FF04E021784E
:101A70006846FFF7B1FF641C20780028F7D168465C
:101A8000FFF7D1FF14B010BD80B50100294A08004E
:101A9000C0B21044007AC9B202EB810149684968BA
:101AA0008847C0B202BD80B502000020214B110062
:101AB000C9B2595C00290DD101201100C9B2585496
:101AC0001000C0B21844007AD2B203EB8201496818
:101AD00009688847C0B202BD38B50400154D200022
:101AE000C0B22844007AE4B205EB84046468A468B8
:101AF000A047C0B232BD38B504000E4D2000C0B2C0
:101B00002844007AE4B205EB84046468E468A047E2
:101B1000C0B232BD10B50300064CC9B21800C0B245
:101B20002044007ADBB204EB83035B681B699847AF
:101B3000C0B210BDB818002080B50349034800F0BA
:101B40002CF80349087001BDCC180020600100206A
:101B5000F61800200020704730B404000120002354
:101B6000104D6B7A002B15D100206B7AE854687AFF
:101B700005EB80004460687A28440272687A421C4F
:101B80006A72303008703A2048702F208870002028
:101B9000C8700020C0B230BC704780B50022FFF78B
:101BA000DBFF02BDB81800202DE9F14FB0B092461E
:101BB00004910DF142013A9A2B9199464A70002006
:101BC0000AE01AF8011B0498309A90470028049004
:101BD00000F0B4860D98401C0D909AF8000050B1AA
:101BE0002528EED1002100220791089209910A923E
:101BF0000B910C9204E00D9800F0A2BE41F001019F
:101C00001AF8010F2028F9D023280CD02B2804D053
:101C10002D2805D0302809D00BE041F00201EFE774
:101C200041F00401ECE741F00801E9E741F010015F
:101C3000E6E72A280FD1D9F8002052F8040BC9F89A
:101C4000002000280F9003D540420F9041F004017E
:101C50000AF1010A14E00F92DFF824380AE00F9825
:101C6000984205DA00EB800402EB4402303A0F920E
:101C70000AF1010A9AF80020A2F130000A28EED3F6
:101C80009AF800002E2803D04FF0FF320E9229E080
:101C90001AF8010F2A2809D1D9F8000050F8042BAE
:101CA000C9F800000E920AF1010A1BE02D280CBFB2
:101CB0000AF1010A002000220E92DFF8C4470BE06F
:101CC00040B90E9AA24205DA02EB820503EB450306
:101CD000303B0E930AF1010A9AF80030A3F130026A
:101CE0000A2AEDD3ADF84010DFF89807784400F2E7
:101CF00094709AF8001000F055FF08B11AF8010B23
:101D00008DF842009DF84200682805D19AF800003D
:101D100068280CD1622106E06C2804BF9AF8000004
:101D20006C2804D171218DF842100AF1010A12A821
:101D300006901AF801BBBBF125012CD01C3900F02C
:101D4000D081091F022940F2CC81133900F021858E
:101D5000093900F0C681891E00F0B685491E00F0E1
:101D60006385491E022940F2BC81091F00F05C8591
:101D7000491F00F02881491E00F00B85491E00F024
:101D8000D080C91E0DD0891E00F00385C91E00F049
:101D9000008500F0A4BD25238DF84830012100F016
:101DA000A9BDD9F8000050F8044BC9F80000002C78
:101DB000059440F0A3802B994878002800F0998082
:101DC0004FF0FF340FF6803000F0FCFE201A40F098
:101DD000B58500F090BD6D1E40F0A7853096079D3B
:101DE00012AF75B1309E17F8012B02A9304600F0F2
:101DF00071FE002801D46D1EF5D10028309640F008
:101E00009D850A9D3020002D8DF804000CDD309E4C
:101E1000012301AA02A9304600F06CFE002840F020
:101E20008D856D1EF4D13096059F089D75B1309E4D
:101E300017F8012B02A9304600F04CFE002801D40F
:101E40006D1EF5D10028309640F078850B9D30202E
:101E5000002D8DF804000CDD309E012301AA02A99B
:101E6000304600F047FE002840F068856D1EF4D132
:101E7000309605980899099D471875B1309E17F856
:101E8000012B02A9304600F025FE002801D46D1E6A
:101E9000F5D10028309640F051850C9D3020002D62
:101EA0008DF804000CDD309E012301AA02A9304602
:101EB00000F020FE002840F041856D1EF4D13096E0
:101EC0009DF8400041077FF588AE2020002C8DF85A
:101ED00004007FF782AE309D012301AA02A92846A3
:101EE00000F008FE002840F02985641EF4D13095EA
:101EF00073E60FF66040059000F0FDBC0E9D002DCE
:101F000004D5204600F07EFE044607E02A4620461F
:101F100000F094FE002814BF041B2C46089400F027
:101F2000EABCD9F8001051F8040BC9F8001020F0F1
:101F30000004002121F0FF3512ABCDE902450593E5
:101F4000DDE9022306993C2413B90AB90E9898B129
:101F500002F00F053035641EEEB23A2EA8BF2735C9
:101F6000120942EA03721B090D5508BF002A03D06B
:101F700005980D19A842EBD308190590C4F13C024D
:101F80000E98089282420ADABDF84010821A4FF683
:101F9000EF7001400A92ADF8401000F0ACBC002890
:101FA00040F1A9849DF8400000F01400102840F092
:101FB000A2840F9B07990A985B1A1B1A9A1A002A87
:101FC00040F39984E3E32B99487820B14FF0FF3434
:101FD0000FF65030F8E69DF84200622861D068287C
:101FE00017D06A283FD06C2806D0712847D07428B3
:101FF0002CD07A281DD064E0D9F8001051F8040BD9
:10200000C9F80010002868D14FF0FF340FF62C30CB
:10201000DAE6D9F8001051F8040BC9F8001020B91D
:102020004FF0FF340FF61430CEE60D99018000F02A
:1020300062BCD9F8001051F8040BC9F80010002850
:102040004BD14FF0FF340FF6F420BDE6D9F8001065
:1020500051F8040BC9F8001000283ED14FF0FF34AE
:102060000FF6D820B0E6D9F8001051F8040BC9F8E3
:10207000001080B94FF0FF340FF6C020A4E6D9F865
:10208000001051F8040BC9F8001020B94FF0FF34CC
:102090000FF6A82098E60D9AD317C0E9002300F0A8
:1020A0002ABCD9F8001051F8040BC9F8001020B967
:1020B0004FF0FF340FF6842086E60D99017000F092
:1020C0001ABCD9F8001051F8040BC9F8001020B957
:1020D0004FF0FF340FF6642076E60D99016000F0B2
:1020E0000ABCD9F80020D21D22F00702C9F800204E
:1020F000D2E900010832C9F80020CDE90201C80F79
:1021000002D007982D210AE0BDF84000810702D5D2
:1021100007982B2103E0C00705D50798202112AAB4
:102120001154401C079012A807994BF02002431845
:10213000DDE90201CDE92C01612A059321AC0BD028
:102140000E98002802D506200E9005E001BF4BF046
:102150002000672801210E91DDE9020148004015A9
:10216000401C0A460DD109030BD0ABF161050320D9
:102170001A2D089002D20FF6E0110DE00FF6DC11D7
:102180000AE070B912030CD1ABF1610503201A2DDE
:1021900008901AD30FF6CC110322184600F07AFDEE
:1021A000A9E3DDE90201CDE92E01DDE92E2323F0CB
:1021B0000047B7F5801F22F000060DD20022002F45
:1021C00008BF002E009203D116E00FF69411E3E74A
:1021D0006A4600F0B3FD0FE0DFF8D808DFF8D81842
:1021E00000EB17500090DDE92E234FF0FF3019402F
:1021F000DFF8C87810403943CDE902014BF02000E8
:1022000061280DD1059830210170821CBBF1610F4E
:1022100005920CBF7821582141700798801C0790C7
:10222000DDE9020120F0000231F0004308BF002A7E
:1022300002D10026002567E14BF02008B8F1610FBC
:1022400040F0B4800E98002847BF21210191401C26
:102250000190019FDDE92C017F1C00220023DDE9B4
:10226000024500F0A3FD00998DF8842038BF85F069
:102270000045091F002F00910DF1850653DD204612
:1022800029460022002300F0A9FD4CD24800400D51
:1022900000F11C0312D0002B10DD40F2FF708342CE
:1022A00006DBDFF81C1805F000421143002011E0A6
:1022B0006FF31E5141EA035120460BE024F0000069
:1022C00035F0004108BF00280FBF29461C222946CF
:1022D00000F09CFD04460D4600F036FEFF1F002F67
:1022E000804609DD00F04EFE02460B462046294698
:1022F00000F05AFE04460D46F01D0721B8F1000F0C
:102300000CDD491E5EBF08F00F0200F8012D4FEAF8
:102310002818F3D502E0002200F8012D491EFAD555
:10232000C61D002FABDC0DF18500361A01988642E0
:10233000D8BF304600280DF1850430D4B04206DA0B
:102340000DF185010A5C082AA8BF0F2100DA0021DF
:10235000024621AB134400E0401E13F80159521EFF
:102360008D42F9D00F2904D10DF185018B5C5B1CE6
:102370008B54002A04D50099091D21AC401C009102
:10238000411E0CD46218ABF13A0613783033DDB23B
:102390003A2DA8BFF318491E02F80139F5D50E9958
:1023A000002940F1AF80421E0E92ABE00099DFF8A9
:1023B000142747F29750414391FBF2F2DDE92C4597
:1023C000009225F00045D2F1070204DD204629469F
:1023D00000F04DFB0BE052420020DFF8EC1600F05D
:1023E00046FB02460B462046294600F04FFE0446B7
:1023F000B8F1660F0E9806BF009F0A3706273F18F0
:10240000142FC8BF142730200D468DF884000DF11D
:102410008506002F38DD2046294600F05BFF014687
:102420000A4606F1080304200A26B2FBF6F606EB7C
:10243000860EA2EB4E02303203F8012C0A22B6FBC4
:10244000F2F202EB820EA6EB4E063036401E03F887
:10245000026DE9D1083F002F03F10806D9DD0846D7
:1024600000F04CFF02460B462046294600F09CFD3A
:102470000022DFF8583600F04FFF04460D46CAE749
:10248000CBCCCC0C547E00000DF18500361A0DF13A
:10249000850404E00098401E761E0090641C20789D
:1024A0003028F7D0B8F1660F02D10099491C04E03A
:1024B000B8F1650F0CBF012100210E980818864263
:1024C000B8BF701E00281DD4B04204DA215C342944
:1024D000C8BF392100DC30210246631E9D1800E090
:1024E000401E15F80169521E8E42F9D0392902D1D9
:1024F000A15C491CA154002A04D50099491C1C4622
:10250000401C00910646009D00F0D8FF406A077805
:10251000DDF8388030B2002802DC01260FF2486472
:102520004BF02000662808BF6D1C16D0672846D1E6
:1025300028B210F1040F48DB404546DA9DF8400010
:102540006D1C010703D430B24045B8BF804628B2A5
:10255000B8EB000848BF4FF000080FFA85FBBBF14D
:10256000000F00F3B5800898411C089130220599AE
:102570000A54B8F1000F03DC9DF84000010704D5B0
:102580000898411C089105990F5418EB0B0FB8BF20
:10259000C8F100052DB268420B90A84432B29045B4
:1025A000B8BF4646059B089836B209963246214682
:1025B000184400F06FFBA8EB06000C90D2E0BBF1D2
:1025C000610F17D14FF0700B19E030B2404504DABB
:1025D0009DF840100A0758BF8046B8F1010848BF6F
:1025E0004FF00008BBF1670F14BF4FF0450B4FF0E1
:1025F000650B04E0BBF1410F08BF4FF0500B08988A
:10260000411C0891B8F1000F059914F8012B0A54E8
:1026100003DC9DF8400001071AD50898411C089179
:10262000B8F1000F05990F5412DD761E30B28045C7
:102630000598089BB8BF464632B22146184400F0C0
:1026400029FB089936B271180891A8EB06000B9087
:1026500005980899084429B2002980F800B003D4ED
:102660002B224270821C04E02D2242700D46821CF7
:102670006D4200212CAB28460AE004460A2094FB58
:10268000F0F000EB8005A4EB450403F8014B491C76
:1026900000B20028F1DC012906DC4BF0200065289F
:1026A00004BF302002F8010B00292CAB08D13020E8
:1026B00002F8010B06E0491E585C303002F8010BAD
:1026C0000029F8DC059908980844121A099249E093
:1026D00030B229B288421CDA0598089B32B22146F2
:1026E000184400F0D7FA089936B27118ABEB060619
:1026F000B8F1000F08910B9603DC9DF8400002072B
:1027000004D5059847540999491C0991CDF83080A2
:1027100028E00598089B2AB22146184400F0BAFA2E
:102720000898761B5844B8F1000F089003DC9DF818
:1027300040100A0703D5411C089105990F5430B287
:1027400080450598089BB8BF464632B204EB0B01A2
:10275000184400F09FFA089836B230180890A8EB99
:1027600006000B909DF8400000F01400102840F087
:10277000C280079A08990B988A18099982180C98B0
:102780008A1882180F98824280F2B580821A0A92C3
:10279000B1E09DF84200622808D068280ED06A286F
:1027A00014D06C281FD0712810D01CE0D9F800106C
:1027B00051F8040BC9F80010C0B21AE0D9F80010A3
:1027C00051F8040BC9F8001080B212E0D9F80020CB
:1027D000D21D22F00702C9F80020D2E90001083218
:1027E000C9F8002006E0D9F8001051F8040BC9F828
:1027F00000100021CDE902019DF8400001075AD5E3
:10280000DDE90223002B08BF002A54D04BF0200042
:10281000782850D1079812A930220A54401C431C32
:10282000079301F800B046E09DF84200622808D006
:1028300068280ED06A2814D06C281FD0712810D0B8
:102840001CE0D9F8001051F8040BC9F8001040B290
:102850001AE0D9F8001051F8040BC9F8001000B2C2
:1028600012E0D9F80020D21D22F00702C9F800209A
:10287000D2E900010832C9F8002006E0D9F80010BA
:1028800051F8040BC9F80010C117CDE90201002965
:1028900002D507982D210AE0BDF84000810702D536
:1028A00007982B2103E0C00705D50798202112AA1D
:1028B0001154401C079012A807990144059102A8E1
:1028C000594600F04FF816E001200790D9F80000B3
:1028D00050F8041BC9F800008DF848100BE02521C2
:1028E0000122BBF1000F8DF84810079203D08DF83C
:1028F00049B0022107910F9A07980A990C9C121A65
:102900000898521A0B99121A0998521A121A9DF81D
:102910004000141B41073FF562AA2020002C8DF8CF
:1029200004007FF75CAA309E2546012301AA02A974
:10293000304600F0DFF800283FF44DAA4FF0FF309A
:1029400031B0BDE8F08F00007072696E74665F731D
:102950003A2062616420257320617267756D656E2F
:10296000740000002DE9FC4307466F293E6908BF4B
:10297000082405D041F02000782814BF0A24102430
:102980003C25D7E90023642918BF69299046994658
:1029900005D1002B03D5D8F1000869EB4909B9F13D
:1029A000000F08BFB8F1000F0CD1386B50B9082CDC
:1029B00039D197F83800010735D530203B2586F806
:1029C0003B0030E08DF80010404649462246E317B0
:1029D00000F078FD3032D0B26D1E3A28019504DB4C
:1029E0009DF80000A0F151018A18725540464946F1
:1029F0002246E31700F066FD80465FEA010908BF42
:102A0000B8F1000F03D0F86871198842DCD3082CA4
:102A100009D197F83800010705D5705D302802D03C
:102A20006D1E30207055C5F13C02BA617119F96014
:102A3000386B824208DA821A3A624FF6EF70398FA9
:102A400001403987BDE8F38300280ED597F8380098
:102A500000F01400102808D17B6B7969386A5B1A82
:102A60001B1A9A1A002AC8BF3A62BDE8F3832DE9FF
:102A7000D04306460F4614464FF00008DFF850904A
:102A800012E0E00707D542464B463046394600F093
:102A900043FC06460F464046494642464B4600F038
:102AA0003BFC641080468946002CEAD1304639460A
:102AB000BDE8D08302FCFFFFFFFF0F800000E03F76
:102AC0000000F07FA08601000000F03F84D797410E
:102AD0000000244010B503460C461146A0689847F4
:102AE000A06020B1E06A401CE062002010BD4FF001
:102AF000FF3010BDF8B505460E4617461C460020AF
:102B00005CB117F8011BB068A847B06030B1F06A3B
:102B1000401CF0620020641EF3D1F2BD4FF0FF3084
:102B2000F2BD00007072696E74665F733A20256EA4
:102B300020646973616C6C6F776564007072696E94
:102B400074663A2062616420256E20617267756D3B
:102B5000656E7400000000006E616E004E414E0014
:102B6000696E6600494E4600300030B4002513E01F
:102B700050F8042BD30744BFA9F101039A18091F89
:102B8000042942F8045BFAD213468C0744BF15802F
:102B90009B1CC90748BF1D7050F8041B0029E7D1D2
:102BA00030BC7047C9B202788A421AB11CBF10F813
:102BB000012FF9E718BF002070470268531C03601B
:102BC0001170704780B500B906A005490B681BB1AC
:102BD00022220021984701E000F08CFD222002BD56
:102BE000E8180020636F6E73747261696E742068F8
:102BF000616E646C65723A20626164206D65737306
:102C00006167650000F10103810704D010F8011B22
:102C1000820781B1FAD10268A2F10131914311F02A
:102C2000803104BF50F8042FF6E709BAB1FA81F1F8
:102C300000EBD100401CC01A70472E00C9B28307B8
:102C400006D0521E22D310F8013B9942F7D11FE063
:102C5000083A13D302F1040241EA012141EA014199
:102C600050F8043B121F21BF4B40A3F1013C2CEA5A
:102C7000030C1CF0803FF3D0C9B2001F083210F8DB
:102C8000013B521E28BF91EA030FF8D818BF01205C
:102C9000401E704762B38B0708D0521E11F8013BEB
:102CA00000F8013B00F024808B07F6D1830740F049
:102CB000208000BF103A07D330B4B1E83810103A82
:102CC000A0E83810F9D230BC530724BFB1E808108F
:102CD000A0E8081044BF51F8043B40F8043BD20779
:102CE00024BF31F8022B20F8022B44BF0B7803706D
:102CF0007047121F17D35B0009D151F8043B20F82D
:102D0000023B1B0C121F20F8023BF6D20BE051F8DD
:102D1000043B00F8013B1B0A20F8023B1B0C121F6E
:102D200000F8013BF3D238BF121D521E24BF11F828
:102D3000013B00F8013BF8D87047000010B514467D
:102D400000F002F8226010BDC1F30A5343B14A00FB
:102D500012F5001F28D2A3F2FE32A1EB02517047F8
:102D600050EA410C20D001F0004C31EA0C01B1FADC
:102D700081F204BFB0FA80F3D2180B3AB2F120030B
:102D80002CBF00FA03F1914041EA0C013EBFC2F1B1
:102D9000200C20FA0CF319439040524240F2FD33CC
:102DA000D21A01EB03517047002270474FF4001C08
:102DB0001CEB410F94BF1CEB430F09E041EA030CED
:102DC00050EA4C0C52EA0C0C03D2994208BF9042D4
:102DD000704714BF8B428242704700004FF4001CC2
:102DE0001CEB410F94BF1CEB430F09E041EA030CBD
:102DF00050EA4C0C52EA0C0C03D28B4208BF8242C0
:102E0000704714BF9942904270470000124254D458
:102E100040F2FF7C1CEA11530FD0634531D09B1860
:102E200063453CBF01EB0251704701F0004141EAAC
:102E30000C510020AFF30080704750EA410320D0CE
:102E400001F0004C91EA0C011CD0B1FA81F30B3B6C
:102E50009A420DD9D21A994051EA0C01C3F1200CC3
:102E600020FA0CFC61449840531C40F2FF7CD7E7E9
:102E7000914041EA0C01C2F1200C20FA0CF31943F5
:102E800090407047B0FA80F31533202BE0D3202A0E
:102E9000EED3203A203B9A4209D9D21A00FA03F124
:102EA00041EA0C010020531C40F2FF7CB8E700FA15
:102EB00002F141EA0C0100207047524240F2FF7CCF
:102EC0001CEA11530DD06345DBD0B2EB030C3CBFC1
:102ED000A1EB025170470CF1010221EA035141F4C8
:102EE000801150EA410CCCD001F0004C352A27DC8F
:102EF00030B481EA0C01B2F1200309DAC2F12003F7
:102F0000044601FA03F5D0402843D1409C400CE030
:102F1000C3F12002450020FA03F418BF44F0010475
:102F200021FA03F091400C43002174F1004550F167
:102F3000000051EB0C01244230BC7FF47BAF7047A2
:102F40006146002076E70000C1F30A5340F2FE32EA
:102F50009B1A14DDD3F120034FEAE17208DDC902A8
:102F600041EA505141F00040D8408018504070472D
:102F700003F2E13010B1D24382F0004070470020EC
:102F800070470000C11768B14840401AB0FA80F29B
:102F90009040D21CC907C2F5846241EA025202EB9A
:102FA000D02140057047000070B44FF0004591EA11
:102FB000030F40F1A3836B40841A71EB030603D225
:102FC000001BB141121973414FF4001C1CEB410F5F
:102FD00034BF7CEB430442E00C0DA4EB1356352EBA
:102FE0004FDC45EAC323DB0A45EAC121C912B6F129
:102FF00020050DDD63FA05F6EB4086EA0305124273
:1030000018BF45F00105C01851F100010CD213E0C2
:1030100062FA06F5F2405540F3415A40B340F3409E
:103020005A408018594107D349085FEA30005FEAE7
:10303000350528BF45F0010501F58011420875F1FD
:10304000004250F1000041EB04514E0016F5001F04
:1030500070BC38BF70470020090D090570471CEB94
:10306000410F10D252EA43060BD0BCEB410F05D8FA
:103070000C0DAB43661E342EB6DD02E0AB43801868
:10308000594170BC704770BC70470000F0B540F209
:10309000FF7581EA030C0CF0004C15EA11541DBFBA
:1030A00015EA1357AC42AF42E5E0BC41C1F313014E
:1030B000C3F31303801A994143F4801304D2641EAE
:1030C0004000494180185941C90241EA5051B1FBC1
:1030D000F3F603FB1611A2FB0675D7EBC020A9413E
:1030E00002D2761E80185941C90241EA5051B1FB03
:1030F000F3FE03FB1E11A2FB0E75D7EBC020A94106
:1031000003D2AEF1010E80185941890241EA905173
:10311000760546EA8E2EB1FBF3F603FB1611A2FBF1
:103120000675D7EB8020A94102D2761E801859413E
:10313000C90241EA50514EEA060EB1FBF3F603FB19
:103140001611A2FB0675D7EBC020A94102D2761E4C
:1031500080185941C90241EA5051B1FBF3F703FB12
:103160001711A2FB0735D3EBC020A94167F1000777
:103170000CBF004247F0010766F3D5274FEA1E3126
:10318000B80814F5806412DDBD0775F1004250EBFC
:103190000E5051EB045111F5801F5CBF41EA0C0148
:1031A000F0BD4CF07F6141F0E0410020F0BDBD0773
:1031B0006D0840EA0E5041F48011D4F10104B4F1DD
:1031C00020060ADAC4F120060200E04001FA06F304
:1031D000E1401843B24015430EE0342C13DCC6F135
:1031E000200445EA40056D0820FA06F2154321FA4D
:1031F00006F0A1400D43002175F1004250F100009E
:1032000051EB0C01F0BD00205FEA0C01F0BDCFB91D
:1032100092185B41B3FA83F704BFB2FA82F6BF1982
:103220000B3FB7F120062FBF02FA06F3BB40C7F1F0
:10323000200622FA06F638BF3343BA401CB1E4191F
:10324000641E33E77F4231F00041B1FA81F404BFDC
:10325000B0FA80F6A4190B3CB4F120062FBF00FA97
:1032600006F1A140C4F1200620FA06F638BF31432A
:10327000A0403C1B1AE7AC421ABF05EA1357AF4205
:1032800012E050EA41061CBF52EA4306BFE750EA8B
:103290004107304661461CBF41EA0551F0BD52EA84
:1032A000430C08BFC143F0BD00204FF4001616EBDD
:1032B000410F98BF16EB430F08BF16EB410F24BF19
:1032C000C14305E016EB430F0CBF61464CEA0551C4
:1032D000F0BD0000400D491840EA81200CD2490D94
:1032E000A1F58061491C40F0004005DBD1F11F01D0
:1032F00054BFC840C017704700207047014648B10E
:10330000B0FA80F18840C91CC1F58461090501EB60
:10331000D021400570470000B0B581EA030C0CF0E5
:10332000004C40F2FF7515EA11541DBF15EA135702
:10333000AC42AF4239E0E41923EA455343F4801329
:10334000C90241F0004141EA505EC7021100A7FBEB
:10335000020200284FF00000EEFB01204FF00001B8
:10336000E3FB072118BF42F0010240180021494148
:10337000E3FB0E01A4F580640F0302D2520040412A
:10338000494154F101046CDD470872F1004250F1EB
:10339000000051EB0451A1F580115CBF41EA0C0122
:1033A000B0BD4CEA05510020B0BD05EA1357AC4250
:1033B00014BFAF4241E050EA410E1CBF52EA430E37
:1033C00002E061460020B0BD24423C441BD15FEACC
:1033D000070EF6D0090302BF01460020AEF1140E1D
:1033E000B1FA81F7AEEB070401FA07FE0C37C7F11B
:1033F000200100FA07F7C8404EEA000E23EA4553C1
:1034000043F48013A2E733F00043B3FA83F704BF19
:10341000B2FA82FE77440B3FE41BB7F1200E2FBFB8
:1034200002FA0EF3BB40C7F1200E22FA0EFE38BF9F
:1034300043EA0E03BA40641C82E750EA410E14BF0F
:1034400052EA430E6FF000014FF4001717EB430FE1
:103450008ABF194617EB410FB5E74CEA055100202A
:10346000B0BDD4F10104B4F120070FDAC4F1200794
:10347000520828BF42F0010210FA07F501FA07F7D7
:10348000E1BF2A43E0403843E1400FE0352C98DCAF
:10349000C7F1200452EA400220FA07F218BF42F0B6
:1034A000010231FA07F0A1400A43002172F1004203
:1034B00050F1000051EB0C01B0BD00000048704716
:1034C00074010020BBBBE1B1B2F5803F80F07E808B
:1034D000022A1ED98C46B1FBF2F102FB11C31B0478
:1034E00043EA1043B3FBF2FC02FB1C3380B240EA18
:1034F0000343B3FBF2F002FB103240EA0C4000231E
:103500007047022A05D98446B0FBF2F002FB10C2D4
:1035100070474AB105D100F0010249085FEA300066
:10352000704700220023704700F09EB90B00020094
:10353000002100207047904271EB030CF6D3B3F5E5
:10354000803F2FD2F0B5B3FA83F7B1FA81F4A7F137
:103550000F0E3D1B5340CEF1200602FA0EF2F3414E
:103560005340B5F10F0746D80F3C2C444140C4F1FD
:103570002006A040F1414140B1FBF3F603FB1611D8
:10358000A2FB0645001BA94102D2761E80185941B4
:1035900080EA010221FA0EF362FA0EF200215A408B
:1035A0003046F0BD30B4B1FBF3FC03FB1C11A2FBB1
:1035B0000C45001BA94103D2ACF1010C8018594104
:1035C00030BC02460B46604600217047B2F1807F56
:1035D00065D3F0B5B2FA82F7B1FA81F4C7F10F06FC
:1035E0003D1B22FA06F307F1110EF24120355A4035
:1035F000B5F10F07B8D94140C4F12006A040F14110
:103600004140B1FBF3FC03FB1C11A2FB0C45001B6A
:10361000A94103D2BCF1010C801859410F2F12D3DC
:103620000F3FC90341EA5041B1FBF3F603FB16110A
:10363000A2FB0645D4EBC030A94102D2761E801809
:10364000594146EACC3C07B34140C7F12006B84097
:10365000F1414140B1FBF3F603FB1611A2FB064515
:10366000001BA94102D2761E8018594180EA01024E
:1036700021FA0EF3C7F1200462FA0EF20CFA07F0F9
:103680005A402CFA04F13043F0BD80EA010221FADD
:103690000EF3002162FA0EF260465A40F0BD8C46ED
:1036A000B1FBF2F102FB11C31B0243EA1063B3FB4F
:1036B000F2FC02FB1C331B024CEA002043EA1063BD
:1036C000B3FBF2FC02FB1C331B024CEA002043EA72
:1036D0001063B3FBF2FC02FB1C331B024CEA00201C
:1036E00043EA1063B3FBF2FC02FB1C324CEA0020FD
:1036F00000237047012000F0B9B80000841A71EB74
:10370000030604D26E40001BB141121973414FF4FD
:10371000001C1CEB410F34BF7CEB430683E00C0D17
:10372000A4EB1356362E00F37C80012E45EAC3230A
:1037300041DC43EA525312BFD20292025B082405D5
:1037400045EAC12141EA5051D2EBC020994125D42C
:1037500007D1B0FA80F610FA06F162D000202036C8
:1037600008E0B1FA81F6B140C6F1200220FA02F277
:103770001143B0404FEAF474B4EB465434F0010600
:103780004FEA74040AD8D6F50016760D04F000440A
:10379000F04061FA06F25040F1404840C00A40EA69
:1037A000415021F0004128BF5FEA500550F1000070
:1037B00044EBD12135E0DB0A45EAC121C90AB6F163
:1037C00020050EDD42EA0242120CC5F1200603FA82
:1037D00006F6EB4042EA06056D42984161F10001B0
:1037E0000DE062FA06F5F240554063FA06FC82EA03
:1037F0000C02F3405A406D42904161EB030111F419
:10380000801F05D1641E620502D06D004041494110
:1038100021F48011430875F1004350F1000041EBA1
:10382000045170BC70471CEB410F15D223F00043CC
:1038300052EA43060BD04FEA4C0CBCEB410F04D8C4
:103840000C0D661E342EB7DDEBE7801A994150EA65
:10385000410608BF0021E4E708BF1CEB430F28BF67
:103860006FF00001DDE700007047000080B500F058
:1038700007F8024A11001820ABBEFBE72600020041
:1038800010B500F013F8020000230024E443106890
:10389000A04203D011000220ABBE13605068A042CA
:1038A00003D0111D0220ABBE536010BD004870470D
:1038B000A40200200EB418B504000898012817D1FE
:1038C000A06B30F48030A063E168DFF86C09014040
:1038D000E160E06830F44010E0600F98012803D107
:1038E000E06850F48010E060200000F05CFF12E01F
:1038F000E06850F04000E060200000F054FF0C99B8
:10390000002904D1A16B51F48031A16303E0A16BC4
:1039100031F48031A1630699012907D1A16851F0E2
:103920000601A160A16851F02001A160C0B212BCE3
:103930005DF810FB1300DBB2022B52D1DFF8FC283C
:103940008A1ADFF8FC389A4201D20F214FE0DFF8E3
:10395000F4288A1ADFF8F0389A4201D20E2146E0A4
:10396000DFF8E8288A1ADFF8E8389A4201D20D21F8
:103970003DE0DFF8E0288A1ADFF8DC389A4201D20D
:103980000C2134E0DFF8D4288A1ADFF8D4389A42C0
:1039900001D20B212BE0DFF8CC288A1ADFF8C838D7
:1039A0009A4201D20A2122E0DFF8C0288A1ADFF801
:1039B000C0389A4201D2092119E0DFF8B8288A1AE2
:1039C000DFF8B4389A4201D2082110E0DFF8AC28C1
:1039D000891ADFF8AC28914201D2072107E00621BD
:1039E00005E0D2B2002A01D1092100E00921C26814
:1039F00032F47052C260C268890211F470511143EE
:103A0000C16000207047816851F001018160002091
:103A1000704781684908490081600020704738B5C7
:103A200004000025E06830F0C040E0600800C0B24B
:103A3000012812D1E06850F00050E060012000F051
:103A4000E1FE6D1C200000F05DFE012801D0322D4A
:103A5000F4D3322D16D1012015E0C9B200290FD1BF
:103A6000E06850F08040E060012000F0CBFE6D1C6B
:103A7000200000F047FE0028EBD0322DF4D3E8E719
:103A8000012000E0002032BD0EB478B5040000250E
:103A90002600002005E0002104EB8002C2F804119A
:103AA000401C0F28F7D30F98002814D116F500609A
:103AB000406850F0020016F500614860A06B50F4B9
:103AC0000010A063A06B30F40020A063A06B30F462
:103AD0008020A06307E0A06B30F40010A063A06B0F
:103AE00050F40020A063002016F56061086016F510
:103AF0000060006816F5006108600A9801280CD182
:103B00000798002804D10021200000F0DFF808E029
:103B10000121200000F0DAF803E00321200000F08A
:103B2000D5F81021200000F0A7F8002800D00125CA
:103B3000200000F0B7F8002800D00125002016F57D
:103B400000610861002016F500614861002016F54B
:103B50000061C86100201BE0002116EB401212F545
:103B60001062116006E05FF0904116EB401212F512
:103B70001062116016EB401111F5106100220A610C
:103B800016EB401111F510614FF67F328A60401C30
:103B90000599884210D216EB401111F510610968A1
:103BA0000029D9D50028DED15FF0006116EB401264
:103BB00012F510621160DDE700201BE0002116EB1A
:103BC000401212F53062116006E05FF0904116EB92
:103BD000401212F53062116016EB401111F53061A0
:103BE00000220A6116EB401111F530614FF67F3269
:103BF0008A60401C0599884210D216EB401111F5DD
:103C0000306109680029D9D50028DED15FF0006154
:103C100016EB401212F530621160DDE716F5006018
:103C2000006930F4807016F5006630610020A061F4
:103C30007FF0804060610898002803D1A06950F0AF
:103C40001000A061A169DFF8A40B0143A1610B98EA
:103C5000002803D0A06950F00800A0610F98012847
:103C600005D1A06940F0804050F00400A061280018
:103C7000C0B272BC5DF810FB81B0002200928901D5
:103C800051F0200101610099491C0091DFF8602B7F
:103C9000914205D201698906F5D4002001B0704730
:103CA0000320FBE781B00021009110210161009900
:103CB000491C0091DFF8382B914205D20169C906F1
:103CC000F5D4002001B070470320FBE710F5006237
:103CD0001268C9B2114310F50060016000207047FE
:103CE00010F50060806810F00600002801D1002067
:103CF00006E0022801D0062801D1022000E00F20B2
:103D0000C0B2704730B40A784B78012B2BD110F534
:103D10000063DB6901240D7815F00F05AC40A4B2F7
:103D2000234310F50064E36110EB421313F51063B5
:103D30001B681B0440D410EB421313F510631B687F
:103D40008C686405640DC97854EA814454EA82544D
:103D500044F0805454F40044234310EB421010F517
:103D60001060036028E010F50063DB6901240D7822
:103D700015F00F05AC4053EA044310F50064E3610D
:103D800010EB421313F530631B681B0414D410EBC3
:103D9000421313F530631B688C686405640DC978A1
:103DA00054EA814444F0805454F40044234310EB1B
:103DB000421010F530600360002030BC704730B412
:103DC0000A784B78012B47D110EB421313F510639F
:103DD0001B68002B17D510EB421313F510631B68FB
:103DE00053F0006310EB421414F51064236010EBE1
:103DF000421313F510631B6853F0804310EB421419
:103E000014F510642360012310F50064E46B0D7851
:103E100015F00F0513FA05F5ADB2AC4310F50065CA
:103E2000EC6310F50064E469097811F00F018B4030
:103E30009BB234EA030310F50061CB6110EB421131
:103E400011F510610B68DFF8AC190B4010EB421054
:103E500010F51060036045E010EB421313F530637A
:103E60001B68002B17D510EB421313F530631B684A
:103E700053F0006310EB421414F53064236010EB30
:103E8000421313F530631B6853F0804310EB421468
:103E900014F530642360012310F50064E46B0D78A1
:103EA00015F00F0513FA05F534EA054410F5006521
:103EB000EC6310F50064E469097811F00F018B40A0
:103EC00034EA034410F50061CC6110EB421111F5A6
:103ED00030610B68DFF820190B4010EB421010F531
:103EE00030600360002030BC7047F8B504000D78E6
:103EF0004B78012B40F005814B69002B24D114EB4A
:103F0000451313F5106314EB451616F51066366964
:103F10006FF3DC461E6114EB451313F5106314EBCD
:103F2000451616F51066366956F400261E6114EB28
:103F3000451313F5106314EB451616F51066366934
:103F4000F60CF6041E615AE014EB451313F51063EA
:103F500014EB451616F510663669F60CF6041E616C
:103F600014EB451313F5106314EB451616F51066A4
:103F700036696FF3DC461E6114EB451616F51066C4
:103F800014EB451313F510631F69D1F814C08B6847
:103F900013EB0C0CBCF1010C8B68BCFBF3F3DFF8EA
:103FA0005CC81CEAC34C5CEA0707376114EB451395
:103FB00013F5106314EB451616F5106636694F6954
:103FC0007F037F0B3E431E61CB78012B17D114EB8F
:103FD000451313F5106314EB451616F51066366994
:103FE00036F0C0461E6114EB451313F5106314EB55
:103FF000451616F51066366956F000561E61130018
:10400000DBB2012B36D10869002805D014EB45102E
:1040100010F510600A694261C87801281DD114F5B5
:1040200000608068C0050CD414EB451010F51060DA
:10403000006850F0005014EB451111F51061086054
:104040000BE014EB451010F51060006850F0805044
:1040500014EB451111F51061086014EB451010F5D3
:104060001060006850F0044014EB451414F510641F
:104070002060DFE014EB451313F510631B6853F069
:10408000044314EB451616F510663360CB78012B0C
:1040900010D04869002800F0CD8014F50060406B16
:1040A0000122097811F00F018A40104314F50064D1
:1040B0006063BFE014F500639B68DB050CD414EB70
:1040C000451313F510631B6853F0005314EB4514AC
:1040D00014F5106423600BE014EB451313F5106323
:1040E0001B6853F0805314EB451414F510642360DF
:1040F000D2B200924B699BB20A78C96800F0B0F95D
:1041000098E014EB451010F5306014EB451313F5EF
:1041100030631B69DB0CDB04036114EB451010F505
:10412000306014EB451313F530631B696FF3DC4308
:104130000361486900281AD114EB451010F530606E
:1041400014EB451313F530631B698E687603760B09
:104150003343036114EB451010F5306014EB451345
:1041600013F530631B6953F40023036129E04B69A5
:104170008868C3185B1E8868B3FBF0F014EB451326
:1041800013F5306314EB451616F5306636690700F3
:10419000BFB2DFF868C61CEAC74C5CEA06061E61BF
:1041A00014EB451313F5306314EB451616F5306622
:1041B00036698F6880B200FB07F04003400B304344
:1041C0001861D2B2012A08D1C868002805D014EBC2
:1041D000451010F53060CA684261C87801281DD1C9
:1041E00014F500608068C0050CD414EB451010F580
:1041F0003060006850F0005014EB451111F530614B
:1042000008600BE014EB451010F53060006850F0CA
:10421000805014EB451111F53061086014EB451026
:1042200010F53060006850F0044014EB451414F5AC
:10423000306420600020F2BDBFFFBDFFC0ACD800DD
:1042400000350C00C0E1E40040420F000024F400FF
:10425000804F12008073060120D61300A0491A0176
:1042600060E31600002D310140771B0040A44C0193
:10427000C091210000366E012075380020ABA601E8
:10428000E09C410070B40B001C785978012940F083
:1042900095805969002924D110EB441111F5106162
:1042A00010EB441515F510652D696FF3DC450D61B4
:1042B00010EB441111F5106110EB441515F5106564
:1042C0002D6955F400250D6110EB441111F51061B5
:1042D00010EB441515F510652D69ED0CED040D611D
:1042E00037E010EB441111F5106110EB441515F592
:1042F00010652D69ED0CED040D6110EB441111F505
:10430000106110EB441515F510652D696FF3DC4550
:104310000D6199685D69A94201D29968596110EBF4
:10432000441111F5106110EB441515F510652D6958
:1043300055F400250D6110EB441111F5106110EBDF
:10434000441515F510652D695E697603760B3543C6
:104350000D61D2B2012A15D11969002905D010EBDF
:10436000441111F510611A694A6110EB441111F5FD
:104370001061096851F0044110EB441010F5106011
:1043800001606AE010EB441111F51061096851F009
:10439000044110EB441212F51062116059690029B2
:1043A0005BD010F50061496B01221B7813F00F03FD
:1043B0009A40114310F5006041634EE010EB441148
:1043C00011F5306110EB441515F530652D69ED0CD4
:1043D000ED040D6110EB441111F5306110EB441543
:1043E00015F530652D696FF3DC450D6159690029BC
:1043F00001D09968596110EB441111F5306110EB4F
:10440000441515F530652D6955F400250D6110EB47
:10441000441111F5306110EB441515F530652D6927
:104420009E687603760B35430D61D2B2012A08D11E
:10443000D968002905D010EB441111F53061DA6814
:104440004A6110EB441111F53061096851F00441E3
:1044500010EB441010F530600160002070BC704714
:10446000F0B4049CE4B2002C16D19BB2DB1C9B0878
:1044700000250FE00C0026681700FFB24FF48054AF
:1044800004FB070717F580573E60491C491C491C6F
:10449000491C6D1C9D42EDD30020F0BC704778B4E0
:1044A000030008001400A4B2A40812F003020021C3
:1044B00009E013F580552D6806003560401C401C4E
:1044C000401C401C491CA142F3D3110089B20029B1
:1044D00012D0002113F580531B686C462360009BAB
:1044E0000C00E4B2E400E3400370491C401C521E7F
:1044F00013009BB2002BF2D172BC70470200087807
:104500004978012921D112EB401111F51061096898
:1045100000290DD400280BD012EB401111F51061C9
:10452000096831F0804112EB401313F510631960F4
:1045300012EB401111F51061096851F4001112EBF2
:10454000401212F51062116020E012EB401111F5DB
:104550003061096800290DD400280BD012EB4011FE
:1045600011F53061096831F0804112EB401313F509
:104570003063196012EB401111F53061096851F494
:10458000001112EB401212F53062116000207047EA
:1045900010B40A784B78012B1ED110EB421313F59F
:1045A00010631B6833F4001310EB421414F510640D
:1045B0002360CB78032B02D0C97802292AD110EBD3
:1045C000421111F51061096851F0805110EB421051
:1045D00010F5106001601DE010EB421313F530631D
:1045E0001B6833F4001310EB421414F5306423609D
:1045F000CB78032B02D0C97802290BD110EB4211E2
:1046000011F53061096851F0805110EB421010F53E
:1046100030600160002010BC704710F50062126825
:1046200032F4FE6210F500631A6010F50062126841
:10463000C9B2090111F4FE61114310F50060016077
:104640000020704710F5606109688908890010F53D
:104650006062116010F50061496831F0020110F5E7
:10466000006041600020704710F5606109688908AA
:10467000890010F56062116010F50061496851F021
:10468000020110F500604160002070470100486998
:10469000896908407047010011F50060806911F5D3
:1046A0000061C9690840000C7047010011F5006005
:1046B000806911F50061C969084080B27047020045
:1046C000C9B212EB411010F53060806812F500623B
:1046D00051690840704710B410F50062126910F576
:1046E00000635B6B11F00F04E340DB0113F0800308
:1046F0001A43C9B210EB411010F5106080681040E9
:1047000010BC7047406910F00100704710F510614F
:104710000968C90AC90210F51062116010F500613C
:10472000496851F4807110F50060416000207047C5
:1047300010B40300006CDFF8C840A04206D313F5A4
:1047400030600068002801D500202AE0002013F521
:104750003064206113F53060006950F4002013F5D7
:104760003064206113F53060006950F0180013F5D3
:104770003064206113F53060006950F0C04013F5DB
:1047800030642061C9B201290AD113F53060426159
:1047900013F53060006850F0802013F53063186026
:1047A000002010BC704781B000210091009A521C7B
:1047B00000920F498A4213D20269002AF6D50022DC
:1047C0000092026952F001020261009A521C0092AA
:1047D0008A4207D20269D207F7D4002001B070479D
:1047E0000320FBE70320F9E70000000000383C80CD
:1047F000410D0300007833EC0078F3EF0000F81F60
:104800000B30544F38B5040000F010F8050014F1D7
:10481000010F02D004480078241800F007F8401B6C
:10482000A042FAD331BD00BFAD02002001480068AC
:10483000704700BFE418002010B5D0F8BC42002C2F
:1048400002D15FF0FF3065E01378002B1CD0032B02
:104850001ED0122B20D01A2B2AD01B2B20D01E2B7F
:1048600022D0232B2CD0252B2ED0282B34D02A2B12
:104870003AD02F2B40D05A2B1ED09E2B28D0A82BBD
:104880002ED0AA2B34D03BE0C9B200F044F840E06F
:10489000C9B200F005FA3CE0C9B200F07CF838E09B
:1048A000C9B200F076FA34E0C9B200F0A9FA30E0FB
:1048B000C9B200F0BEF92CE0C9B200F0D1F928E08D
:1048C000C9B200F066F924E0C9B200F0B0F820E007
:1048D000C9B200F0F4F81CE0C9B200F0A6FA18E082
:1048E000C9B200F01CFB14E0C9B200F098FB10E064
:1048F000C9B200F02BFC0CE0C9B200F0C8FC08E023
:1049000020230522C9B200F020FA022060725FF075
:10491000FF3040B210BD70B505000E00D5F8BC42A6
:10492000002C02D15FF0FF3034E0D4F818020028E8
:1049300009D02023052294F81D12280000F005FA62
:104940005FF0FF3026E094F8620202280BD13A2390
:1049500002223100C9B2280000F0F7F905202072C8
:104960005FF0FF3016E03000C0B2D5F8C0128968A1
:10497000884700280BD03A2302223100C9B2280010
:1049800000F0E3F9052020725FF0FF3002E0002024
:10499000E060002070BD38B504000B00D4F8BC0204
:1049A000002802D15FF0FF3040E0D0F81812002953
:1049B00009D12023052290F81D12200000F0C5F92E
:1049C0005FF0FF3032E05178C90719D5917800299E
:1049D00004D10622AE4900F052FD26E091788029EC
:1049E00004D10822AB4900F04AFD1EE02423052231
:1049F00090F81D12200000F0A8F95FF0FF3015E0DC
:104A0000D4F8C012CC69DBB224214B4304EB030180
:104A10000B795B1D1C001579A4B2ADB2AC4200D37A
:104A200013791A0092B200F02AFD002032BD70B551
:104A300005000E00D5F8BC42002C02D15FF0FF301B
:104A40003CE014F5197214F51A713000C0B2D5F8B3
:104A5000C0325B68984740B2002803D194F86202E4
:104A6000022809D13A2302223100C9B2280000F0FD
:104A70006CF95FF0FF3021E0D4F86802401E000EB0
:104A80002074D4F86802401E000C6074D4F86802E8
:104A9000401E000AA074D4F86802401EE074002092
:104AA000207500206075B4F8640280B2000AA07519
:104AB000B4F86402E0750820E060002070BDF8B52D
:104AC00006000F001500D6F8BC42002C02D15FF0A2
:104AD000FF305DE014F5197214F51A713800C0B298
:104AE000D6F8C0325B68984740B2002803D194F8EA
:104AF0006202022809D13A2302223900C9B23000E9
:104B000000F023F95FF0FF3042E0A87AE97A090467
:104B100051EA0061287B51EA0021687B0143E16092
:104B2000002005E000210200D2B222441174401C92
:104B30000100C9B2E2689142F4D3D4F86802401E81
:104B4000000E2075D4F86802401E000C6075D4F881
:104B50006802401E000AA075D4F86802401EE07585
:104B60000020207600206076B4F8640280B2000A4B
:104B7000A076B4F86402E076A87AE97A090451EAEA
:104B80000061287B51EA0021687B0143E16000203D
:104B9000F2BD7CB505000E00D5F8BC42002C02D158
:104BA0005FF0FF3044E06A4601A93000C0B2D5F89A
:104BB000C0325B68984740B2002803D194F8620283
:104BC000022809D13A2302223100C9B2280000F09C
:104BD000BCF85FF0FF302BE0002005E00021020070
:104BE00092B222441174401C010089B20C29F5D301
:104BF0000820E0740198401E000E20750198401EA8
:104C0000000C60750198401E000AA0750198401EB6
:104C1000E0750220207600206076BDF8000080B2AA
:104C2000000AA076BDF80000E0760C20E0600020CD
:104C300076BD10B5D0F8BC021721002802D15FF074
:104C4000FF300CE00B0014799BB2A4B2A34200D356
:104C500011790A0092B2104900F011FC002010BD39
:104C600010B5D0F8BC021B21002802D15FF0FF3044
:104C70000CE00B00147A9BB2A4B2A34200D3117AC9
:104C80000A0092B2054900F0FAFB002010BD0000B6
:104C9000FC000020040100200C0100202401002061
:104CA00010B5D0F8BC12002902D15FF0FF304BE004
:104CB000D1F81832002B08D12023052291F81D12BB
:104CC00000F043F85FF0FF303EE0002005E00023F5
:104CD0000400E4B20C442374401C0300DBB2122B2A
:104CE000F5D3702008740C20C87591F8600291F813
:104CF0006132984220D091F8600201EBC00090F838
:104D00004002887491F8600201EBC00090F8440200
:104D1000087791F8600201EBC00090F845024877EF
:104D200091F86002401C81F8600291F8600204284A
:104D300002D1002081F860021220C8601079132887
:104D400001D21079C860002010BDD0F8BC02002844
:104D50001ED090F8611200EBC10181F8402290F85A
:104D6000611200EBC10181F8443290F8611200EB4E
:104D7000C101002281F8452290F86112491C80F897
:104D8000611290F86112042902D1002180F86112A9
:104D9000704710B5D0F8BC32002B02D15FF0FF3065
:104DA0002DE093F86242012C0CD1147914F0030425
:104DB000022C07D124230522C9B2FFF7C6FF5FF0FA
:104DC000FF301CE0107910F00300012803D100200F
:104DD00083F8620210E0107910F00300022803D17A
:104DE000022083F8620207E0107910F00300032824
:104DF00002D1002083F862020020D860002010BD9C
:104E0000D0F8BC02002802D15FF0FF300CE011792D
:104E1000002903D1002180F8621202E0012180F80C
:104E200062120021C16000207047F8B505000E0035
:104E30001700D5F8BC42002C02D15FF0FF306DE0C6
:104E4000207A002862D194F81C02000609D420239D
:104E5000052294F81D122800FFF777FF5FF0FF305E
:104E60005CE094F86202022809D13A230222310060
:104E7000C9B22800FFF769FF5FF0FF304EE0300055
:104E8000C0B2D5F8C01289688847002809D03A23F3
:104E900002223100C9B22800FFF757FF5FF0FF3050
:104EA0003CE0B878F978090451EA0061387951EAB0
:104EB000002178790143C4F86C12F879397A51EA03
:104EC0000021C4F87012D4F87032D4F86C2231008A
:104ED000C9B2280000F0FEF9002802D55FF0FF30CB
:104EE0001CE0D4F81812D4F87022B4F864024243DB
:104EF000914209D02023052294F81D122800FFF7C3
:104F000024FF5FF0FF3009E0022020724FF40070B0
:104F1000E0603100C9B2280000F0F3F9F2BDF8B545
:104F200005000E001700D5F8BC42002C02D15FF03E
:104F3000FF3073E0207A002868D194F81C02000644
:104F400009D42023052294F81D122800FFF7FDFE46
:104F50005FF0FF3062E094F86202022809D13A2340
:104F600002223100C9B22800FFF7EFFE5FF0FF30E8
:104F700054E03000C0B2D5F8C012896888470028D4
:104F800009D03A2302223100C9B22800FFF7DDFE22
:104F90005FF0FF3042E0B878F978090451EA006127
:104FA000387951EA002178790143C4F86C12B87954
:104FB000F979090451EA0061387A51EA0021787AD6
:104FC0000143C4F87012D4F87032D4F86C22310066
:104FD000C9B2280000F07EF9002802D55FF0FF304A
:104FE0001CE0D4F81812D4F87022B4F864024243DA
:104FF000914209D02023052294F81D122800FFF7C2
:10500000A4FE5FF0FF3009E0022020724FF4007030
:10501000E0603100C9B2280000F073F9F2BDF8B5C4
:1050200005000F001600D5F8BC42002C02D15FF03D
:10503000FF308AE0207A002840F08280D4F81802FD
:10504000002809D12023052294F81D122800FFF71B
:105050007CFE5FF0FF3078E094F81C02000609D572
:105060002023052294F81D122800FFF76EFE5FF042
:10507000FF306AE03800C0B2D5F8C01289688847AE
:10508000002809D03A2302223900C9B22800FFF7CC
:105090005CFE5FF0FF3058E03800C0B2D5F8C012B7
:1050A000C9688847002809D0272302223900C9B2DD
:1050B0002800FFF74AFE5FF0FF3046E0B078F17855
:1050C000090451EA0061307951EA00217079014305
:1050D000C4F86C12F079317A51EA0021C4F87012E8
:1050E000D4F87032D4F86C223900C9B2280000F02C
:1050F000F1F8002802D55FF0FF3026E0D4F87032D6
:10510000B4F864024343D4F81802984209D020232B
:10511000052294F81D122800FFF717FE5FF0FF30FC
:1051200013E0B3F5007F01D34FF400730120207228
:1051300014F110020121280000F036FB002004E0E9
:105140003900C9B2280000F032F9F2BDF8B5050007
:105150000E001700D5F8BC42002C02D15FF0FF30E2
:1051600094E0207A002840F08C80D4F818020028BF
:1051700009D12023052294F81D122800FFF7E5FD30
:105180005FF0FF3082E094F81C02000609D520236E
:10519000052294F81D122800FFF7D7FD5FF0FF30BD
:1051A00074E03000C0B2D5F8C01289688847002882
:1051B0000BD03A2302223100C9B22800FFF7C5FD07
:1051C000052020725FF0FF3060E03000C0B2D5F8FB
:1051D000C012C968884700280BD02723022231005B
:1051E000C9B22800FFF7B1FD052020725FF0FF3043
:1051F0004CE0B878F978090451EA0061387951EA4D
:10520000002178790143C4F86C12B879F97909045E
:1052100051EA0061387A51EA0021787A0143C4F8F2
:105220007012D4F87032D4F86C223100C9B2280060
:1052300000F050F8002802D55FF0FF3026E0D4F8E7
:105240007032B4F864024343D4F81802984209D08B
:105250002023052294F81D122800FFF776FD5FF049
:10526000FF3013E0B3F5007F01D34FF4007301204A
:10527000207214F110020121280000F095FA00209C
:1052800004E03100C9B2280000F091F8F2BD10B579
:10529000D0F8BC42002C02D15FF0FF3019E0527808
:1052A000920707D524230522C9B2FFF74EFD5FF010
:1052B000FF300EE0D4F87032D4F86C22C9B200F09E
:1052C00009F8002802D55FF0FF3002E00020E0601E
:1052D000002010BD10B5D0F8BC42002C02D15FF008
:1052E000FF300DE0D4F868429A18944207D2212387
:1052F0000522C9B2FFF729FD5FF0FF3000E0002072
:1053000010BDF8B506000F00D6F8BC42D4F87052B4
:10531000B4F864024543002C02D15FF0FF3045E051
:10532000B5F5007F01D34FF40075B4F86402B5FB06
:10533000F0F39BB2D4F86C2214F110013800C0B223
:10534000D6F8C0C2DCF810C0E047002809D5112308
:1053500004223900C9B23000FFF7F7FC5FF0FF30DC
:1053600024E02B0014F110028121300000F00FFA2C
:10537000D4F86C12B4F86402B5FBF0F04118C4F82C
:105380006C12D4F87012B4F86402B5FBF0F0091A8C
:10539000C4F87012D4F83802451BC4F83852D4F857
:1053A0007002002801D1032020720020F2BDF8B560
:1053B00005000F00D5F8BC42D4F87062B4F864025E
:1053C0004643002C02D15FF0FF3057E0B6F5007F76
:1053D00001D34FF40076B4F86402B6FBF0F39BB24D
:1053E000D4F86C2214F110013800C0B2D5F8C0C254
:1053F000DCF814C0E047002809D503230422390053
:10540000C9B22800FFF7A1FC5FF0FF3036E0D4F806
:105410006C12B4F86402B6FBF0F04118C4F86C12D8
:10542000D4F87012B4F86402B6FBF0F0091AC4F8AC
:105430007012D4F83802861BC4F83862D4F87002AF
:10544000002804D10021280000F0F6FA15E0D4F875
:105450007012B4F864024143B1F5007F05D2D4F86C
:105460007032B4F86402434301E04FF4007314F166
:1054700010020121280000F097F90020F2BD10B4BD
:10548000002802D15FF0FF3010E013009BB2C36030
:1054900007E0521E13009BB2CB5C1400A4B204447C
:1054A000237413009BB2002BF3D1002010BC704773
:1054B00038B586B004001421002201AD280000F0A8
:1054C0001FFB2068B0F1A04F33D100200090C248EC
:1054D000016851F001010160006810F001000090C6
:1054E00000984FF4C05001900220029000200390D9
:1054F000032004900A20059001A9B84800F034FB6D
:10550000B748016851F08001016000200090B54863
:10551000016851F480410160006810F480400090FF
:10552000009800220021432000F09BFC432000F063
:10553000A9FC07B030BD80B510F57171D0F8040436
:1055400000F00EFD01BD80B50B00DBB21C22534301
:1055500000EB0302D2F80822C9B2D0F8040400F02C
:1055600031FD01BD80B50B00DBB21C22534300EBC3
:105570000302926CC9B2D0F8040400F06CFD01BDC6
:1055800080B5D0F8040400F02AFE01BD38B504004F
:105590000125E068002801D1002506E0E068022826
:1055A00001D1012501E001F013F82900C9B2D4F8B6
:1055B000040400F0FEFDD4F8040400F0BFFD31BD8A
:1055C00010B50400D4F8040400F0F6FD206810F5CE
:1055D0006060006850F00100216811F560610860AA
:1055E000206A002804D08048016851F0060101605B
:1055F00010BD80B5D0F8040400F0E7FD01BD80B512
:10560000C9B2D0F8040400F017FE01BD80B5C9B2DC
:10561000D0F8040400F0F9FD01BD80B5D0F8040411
:1056200000F021FE01BD80B5D0F8040400F01DFE9D
:1056300001BD10B5017800292ED16C4CC4F80404CA
:10564000C0F8C4425FF0A0402060042060600220E7
:10565000E060002020610220A0610020E0610020C5
:105660002062002060620020E062002020632000B1
:1056700000F0B0FF002801D000F0AAFF8021200038
:1056800001F0E6FD40220021200001F0B1FD802262
:105690000121200001F0ACFD002010BD80B50021EB
:1056A0000021D0F8C40201F04FF8C0B200F0A3F816
:1056B000C0B202BD10B51C00002300231300DBB2F2
:1056C000220092B2C9B2D0F8C40201F0D8FAC0B236
:1056D00000F091F8C0B210BD80B500220022C9B21E
:1056E000D0F8C40201F00EFBC0B200F084F8C0B2E2
:1056F00002BD80B500220022C9B2D0F8C40201F078
:1057000017FCC0B200F077F8C0B202BD80B500222D
:105710000022C9B2D0F8C40201F085FBC0B200F08B
:105720006AF8C0B202BD80B500220022C9B2D0F82A
:10573000C40201F0BFFBC0B200F05DF8C0B202BD10
:10574000D0F8C4220800C0B2000609D5C9B211F0D1
:105750007F011C20414302EB010090F83E0008E06D
:10576000C9B211F07F011C20414302EB010090F807
:10577000FE01704780B500220022C9B2D0F8C402F1
:1057800001F067FAC0B200F036F8C0B202BD10B541
:1057900000240024C9B2D0F8C40201F01AFBC0B240
:1057A00000F029F8C0B210BD10B500240024C9B221
:1057B000D0F8C40201F0D9FAC0B200F01CF8C0B2AF
:1057C00010BD80B5C9B2D0F8C40201F0F9FA02BD2B
:1057D00007487047000000003038024000000240D7
:1057E000343802404438024010ED00E0B00200209E
:1057F000880D002070470021C0B2002805D0022883
:1058000007D004D3032806D007E0002006E00320D9
:1058100004E0012002E0032000E00320C0B2704752
:1058200038B50500D5F8BC42002C20D000202072ED
:1058300000206072002084F86102002084F8600279
:10584000002084F862020020D5F8C0120968884759
:1058500001212800FFF74DFF81212800FFF749FFB4
:105860001F2314F5047201212800FFF79DFF31BDAD
:1058700038B50500D5F8BC42002C12D000202072AB
:105880000120607281212800FFF74DFF01212800CF
:10589000FFF749FF1F2314F5047201212800FFF7C9
:1058A00083FF31BDD0F8BC02002801D00021017275
:1058B000704710B50400D4F8BC02002819D0017A52
:1058C000891E03D0491E01290ED912E000F21F22C1
:1058D00090F81D122000FEF7AFFF002803D501212C
:1058E000200000F0A9F804E00021200000F0A4F856
:1058F000FFE710BD10B50400D4F8BC02002817D093
:10590000017A002902D0012904D011E0200000F022
:1059100010F80DE000F21F2290F81D122000FEF793
:105920008BFF002803D50121200000F085F8FFE758
:1059300010BD38B50500D5F8BC42002C2AD0D4F8EB
:105940001402C4F83402D4F81802C4F83802012151
:105950002800FFF736FF1F2810D1D4F81002444961
:1059600088420BD194F81D02022807D294F81E0237
:10597000002803D094F81E0211280CD320230522FE
:1059800094F81D122800FFF7E0F902206072280049
:1059900000F072F831BD04F21F2294F81D122800A5
:1059A000FEF74AFF00280BD5207A052804D10121F3
:1059B000280000F041F8EDE7280000F05DF8E9E785
:1059C000207A02281BD0207A012818D0207A0328B8
:1059D00015D0E068002806D0E26814F11001280014
:1059E00000F00EF8D6E7E068002804D10021280076
:1059F00000F022F8CEE7280000F03EF8CAE7C9E739
:105A000038B5D0F8BC42D4F81832934202D2D4F858
:105A1000183200E01300002C0DD0D4F83852AA1A26
:105A2000C4F83822002284F83C22042222720A00A0
:105A30008121FFF7ACFE31BD38B50500D5F8BC4279
:105A4000002C14D00B48C4F8300284F83C1200201B
:105A500020720D2314F50C7281212800FFF797FEA8
:105A60001F2314F5047201212800FFF79DFE31BDAC
:105A7000555342435553425338B50500D5F8BC42FF
:105A8000002C1DD094F81C0200280AD1D4F818026A
:105A9000002806D0607A002803D101212800FFF7F2
:105AA00035FE81212800FFF731FE607A022807D1F8
:105AB00081212800FFF72AFE01212800FFF726FE9A
:105AC00031BD10B50400D4F8BC0200280AD0427AD7
:105AD000022A08D181212000FFF718FE01212000B1
